{
  "contractName": "AgentRegistry",
  "abi": [
    {
      "inputs": [],
      "payable": true,
      "stateMutability": "payable",
      "type": "constructor"
    },
    {
      "constant": false,
      "inputs": [
        {
          "name": "agentAddress",
          "type": "address"
        },
        {
          "name": "agentName",
          "type": "bytes32"
        },
        {
          "name": "agentRole",
          "type": "uint256"
        }
      ],
      "name": "registerAgent",
      "outputs": [
        {
          "name": "",
          "type": "bool"
        }
      ],
      "payable": false,
      "stateMutability": "nonpayable",
      "type": "function"
    },
    {
      "constant": false,
      "inputs": [
        {
          "name": "agentAddress",
          "type": "address"
        }
      ],
      "name": "getAgent",
      "outputs": [
        {
          "name": "",
          "type": "address"
        }
      ],
      "payable": false,
      "stateMutability": "nonpayable",
      "type": "function"
    },
    {
      "constant": false,
      "inputs": [
        {
          "name": "agentAddress",
          "type": "address"
        }
      ],
      "name": "agentExists",
      "outputs": [
        {
          "name": "",
          "type": "bool"
        }
      ],
      "payable": false,
      "stateMutability": "nonpayable",
      "type": "function"
    },
    {
      "constant": false,
      "inputs": [],
      "name": "howManyAgents",
      "outputs": [
        {
          "name": "",
          "type": "uint256"
        }
      ],
      "payable": false,
      "stateMutability": "nonpayable",
      "type": "function"
    }
  ],
  "bytecode": "0x608060405260006002819055506107b08061001b6000396000f300608060405260043610610062576000357c0100000000000000000000000000000000000000000000000000000000900463ffffffff168063011e0ec4146100675780632dd252931461009257806376ed9f73146100ed578063fb3551ff14610160575b600080fd5b34801561007357600080fd5b5061007c6101e3565b6040518082815260200191505060405180910390f35b34801561009e57600080fd5b506100d3600480360381019080803573ffffffffffffffffffffffffffffffffffffffff1690602001909291905050506101ed565b604051808215151515815260200191505060405180910390f35b3480156100f957600080fd5b50610146600480360381019080803573ffffffffffffffffffffffffffffffffffffffff169060200190929190803560001916906020019092919080359060200190929190505050610249565b604051808215151515815260200191505060405180910390f35b34801561016c57600080fd5b506101a1600480360381019080803573ffffffffffffffffffffffffffffffffffffffff1690602001909291905050506103c9565b604051808273ffffffffffffffffffffffffffffffffffffffff1673ffffffffffffffffffffffffffffffffffffffff16815260200191505060405180910390f35b6000600254905090565b6000600115156000808473ffffffffffffffffffffffffffffffffffffffff1673ffffffffffffffffffffffffffffffffffffffff16815260200190815260200160002060009054906101000a900460ff161515149050919050565b6000610254846101ed565b15156103bd57838383610265610432565b808473ffffffffffffffffffffffffffffffffffffffff1673ffffffffffffffffffffffffffffffffffffffff16815260200183600019166000191681526020018281526020019350505050604051809103906000f0801580156102cd573d6000803e3d6000fd5b50600160008673ffffffffffffffffffffffffffffffffffffffff1673ffffffffffffffffffffffffffffffffffffffff16815260200190815260200160002060006101000a81548173ffffffffffffffffffffffffffffffffffffffff021916908373ffffffffffffffffffffffffffffffffffffffff16021790555060016000808673ffffffffffffffffffffffffffffffffffffffff1673ffffffffffffffffffffffffffffffffffffffff16815260200190815260200160002060006101000a81548160ff021916908315150217905550600260008154809291906001019190505550600190506103c2565b600090505b9392505050565b6000600160008373ffffffffffffffffffffffffffffffffffffffff1673ffffffffffffffffffffffffffffffffffffffff16815260200190815260200160002060009054906101000a900473ffffffffffffffffffffffffffffffffffffffff169050919050565b60405161034280610443833901905600608060405234801561001057600080fd5b50604051606080610342833981018060405281019080805190602001909291908051906020019092919080519060200190929190505050826000806101000a81548173ffffffffffffffffffffffffffffffffffffffff021916908373ffffffffffffffffffffffffffffffffffffffff160217905550816001816000191690555080600281905550505050610297806100ab6000396000f30060806040526004361061006d576000357c0100000000000000000000000000000000000000000000000000000000900463ffffffff16806317d7de7c1461007257806336ad823f146100a557806355b573ae146100ea5780635d1ca63114610145578063fde081741461019c575b600080fd5b34801561007e57600080fd5b506100876101c7565b60405180826000191660001916815260200191505060405180910390f35b3480156100b157600080fd5b506100d0600480360381019080803590602001909291905050506101d1565b604051808215151515815260200191505060405180910390f35b3480156100f657600080fd5b5061012b600480360381019080803573ffffffffffffffffffffffffffffffffffffffff1690602001909291905050506101df565b604051808215151515815260200191505060405180910390f35b34801561015157600080fd5b5061015a610238565b604051808273ffffffffffffffffffffffffffffffffffffffff1673ffffffffffffffffffffffffffffffffffffffff16815260200191505060405180910390f35b3480156101a857600080fd5b506101b1610261565b6040518082815260200191505060405180910390f35b6000600154905090565b600081600254149050919050565b60008173ffffffffffffffffffffffffffffffffffffffff166000809054906101000a900473ffffffffffffffffffffffffffffffffffffffff1673ffffffffffffffffffffffffffffffffffffffff16149050919050565b60008060009054906101000a900473ffffffffffffffffffffffffffffffffffffffff16905090565b60006002549050905600a165627a7a7230582043d5c490d968803a251f405f1c46557f0d51ac88c02ff944fba9d48dddcf434b0029a165627a7a723058203e0fb883089b00f1ae2f1822df668d510bd6e22cecf4b60ce693fb65be0c251f0029",
  "source": "pragma solidity ^0.4.17;\n\nimport \"./PropertyAgent.sol\";\n\ncontract AgentRegistry {\n    mapping (address => bool) private agentsExist;\n    mapping (address => PropertyAgent) private agents;\n    uint256 private countAgents;\n\n    function AgentRegistry() public payable {\n        countAgents = 0;\n\n        //baseline data\n        /*registerAgent(0xca35b7d915458ef540ade6068dfe2f44e8fa733c, \"sergio\", 1);\n        registerAgent(0x14723a09acff6d2a60dcdf7aa4aff308fddc160c, \"eduardo\", 1);\n        registerAgent(0x4b0897b0513fdc7c541b6d9d7e929c4e5364d2db, \"alberto\", 1);\n        registerAgent(0x583031d1113ad414f02576bd6afabfb302140225, \"junior\", 1);\n        registerAgent(0xdd870fa1b7c4700f2bd7f44238821c26f7392148, \"bas\", 1);*/\n    }\n\n    function registerAgent(address agentAddress, bytes32 agentName, uint256 agentRole) public returns (bool) {\n        if (!agentExists(agentAddress)) {\n            agents[agentAddress] = new PropertyAgent(agentAddress, agentName, agentRole);\n            agentsExist[agentAddress] = true;\n            countAgents++;\n            return true;\n        }\n        else {\n            return false;\n        }\n    }\n\n    function getAgent(address agentAddress) public returns (PropertyAgent) {\n        return agents[agentAddress];\n    }\n\n    function agentExists(address agentAddress) public returns (bool) {\n        return agentsExist[agentAddress] == true;\n    }\n\n    function howManyAgents() public returns (uint256) {\n        return countAgents;\n    }\n}\n",
  "sourcePath": "/Users/sergiopereira/Code/Zillios/contracts/src/AgentRegistry.sol",
  "compiler": {
    "name": "solc",
    "version": "0.4.24+commit.e67f0147.Emscripten.clang"
  },
  "schemaVersion": "2.0.1",
  "updatedAt": "2018-06-29T07:11:21.625Z"
}