{
  "contractName": "OracleStatic",
  "abi": [
    {
      "constant": false,
      "inputs": [],
      "name": "kill",
      "outputs": [],
      "payable": false,
      "stateMutability": "nonpayable",
      "type": "function"
    },
    {
      "constant": true,
      "inputs": [],
      "name": "getOwner",
      "outputs": [
        {
          "name": "",
          "type": "address"
        }
      ],
      "payable": false,
      "stateMutability": "view",
      "type": "function"
    },
    {
      "constant": false,
      "inputs": [
        {
          "name": "newOwner",
          "type": "address"
        }
      ],
      "name": "changeOwner",
      "outputs": [],
      "payable": false,
      "stateMutability": "nonpayable",
      "type": "function"
    },
    {
      "inputs": [],
      "payable": false,
      "stateMutability": "nonpayable",
      "type": "constructor"
    },
    {
      "anonymous": false,
      "inputs": [
        {
          "indexed": false,
          "name": "sender",
          "type": "address"
        },
        {
          "indexed": false,
          "name": "id",
          "type": "uint256"
        },
        {
          "indexed": false,
          "name": "queryType",
          "type": "string"
        },
        {
          "indexed": false,
          "name": "data",
          "type": "string"
        }
      ],
      "name": "NewRequest",
      "type": "event"
    },
    {
      "constant": true,
      "inputs": [],
      "name": "getQueries",
      "outputs": [
        {
          "name": "",
          "type": "uint256"
        }
      ],
      "payable": false,
      "stateMutability": "view",
      "type": "function"
    },
    {
      "constant": false,
      "inputs": [
        {
          "name": "id",
          "type": "uint256"
        },
        {
          "name": "queryType",
          "type": "string"
        },
        {
          "name": "data",
          "type": "string"
        }
      ],
      "name": "query",
      "outputs": [],
      "payable": true,
      "stateMutability": "payable",
      "type": "function"
    },
    {
      "constant": false,
      "inputs": [
        {
          "name": "id",
          "type": "uint256"
        },
        {
          "name": "responseData",
          "type": "string"
        }
      ],
      "name": "response",
      "outputs": [],
      "payable": false,
      "stateMutability": "nonpayable",
      "type": "function"
    }
  ],
  "bytecode": "0x6080604052600060035534801561001557600080fd5b50336000806101000a81548173ffffffffffffffffffffffffffffffffffffffff021916908373ffffffffffffffffffffffffffffffffffffffff16021790555060018060405180807f6765740000000000000000000000000000000000000000000000000000000000815250600301905090815260200160405180910390208190555060018060405180807f706f7374000000000000000000000000000000000000000000000000000000008152506004019050908152602001604051809103902081905550610832806100eb6000396000f300608060405260043610610078576000357c0100000000000000000000000000000000000000000000000000000000900463ffffffff16806341c0e1b51461007d578063893d20e814610094578063a6f9dae1146100eb578063acf79c211461012e578063adf59f99146101a1578063fb8e3dec146101f1575b600080fd5b34801561008957600080fd5b5061009261021c565b005b3480156100a057600080fd5b506100a96102b1565b604051808273ffffffffffffffffffffffffffffffffffffffff1673ffffffffffffffffffffffffffffffffffffffff16815260200191505060405180910390f35b3480156100f757600080fd5b5061012c600480360381019080803573ffffffffffffffffffffffffffffffffffffffff1690602001909291905050506102da565b005b34801561013a57600080fd5b5061019f60048036038101908080359060200190929190803590602001908201803590602001908080601f0160208091040260200160405190810160405280939291908181526020018383808284378201915050505050509192919290505050610378565b005b6101ef60048036038101908080359060200190929190803590602001908201803590602001919091929391929390803590602001908201803590602001919091929391929390505050610501565b005b3480156101fd57600080fd5b506102066106e4565b6040518082815260200191505060405180910390f35b6000809054906101000a900473ffffffffffffffffffffffffffffffffffffffff1673ffffffffffffffffffffffffffffffffffffffff163373ffffffffffffffffffffffffffffffffffffffff1614151561027757600080fd5b6000809054906101000a900473ffffffffffffffffffffffffffffffffffffffff1673ffffffffffffffffffffffffffffffffffffffff16ff5b60008060009054906101000a900473ffffffffffffffffffffffffffffffffffffffff16905090565b6000809054906101000a900473ffffffffffffffffffffffffffffffffffffffff1673ffffffffffffffffffffffffffffffffffffffff163373ffffffffffffffffffffffffffffffffffffffff1614151561033557600080fd5b806000806101000a81548173ffffffffffffffffffffffffffffffffffffffff021916908373ffffffffffffffffffffffffffffffffffffffff16021790555050565b6000809054906101000a900473ffffffffffffffffffffffffffffffffffffffff1673ffffffffffffffffffffffffffffffffffffffff163373ffffffffffffffffffffffffffffffffffffffff161415156103d357600080fd5b6002600083815260200190815260200160002060000160009054906101000a900473ffffffffffffffffffffffffffffffffffffffff1673ffffffffffffffffffffffffffffffffffffffff16638f726a8883836040518363ffffffff167c01000000000000000000000000000000000000000000000000000000000281526004018083815260200180602001828103825283818151815260200191508051906020019080838360005b8381101561049857808201518184015260208101905061047d565b50505050905090810190601f1680156104c55780820380516001836020036101000a031916815260200191505b509350505050600060405180830381600087803b1580156104e557600080fd5b505af11580156104f9573d6000803e3d6000fd5b505050505050565b7f08eb6a67ea04b1ea1d8e194451bb84f5eabc92e94bb26da1f3a34997a7f9d40b338686868686604051808773ffffffffffffffffffffffffffffffffffffffff1673ffffffffffffffffffffffffffffffffffffffff168152602001868152602001806020018060200183810383528787828181526020019250808284378201915050838103825285858281815260200192508082843782019150509850505050505050505060405180910390a16060604051908101604052803373ffffffffffffffffffffffffffffffffffffffff16815260200185858080601f016020809104026020016040519081016040528093929190818152602001838380828437820191505050505050815260200183838080601f0160208091040260200160405190810160405280939291908181526020018383808284378201915050505050508152506002600087815260200190815260200160002060008201518160000160006101000a81548173ffffffffffffffffffffffffffffffffffffffff021916908373ffffffffffffffffffffffffffffffffffffffff16021790555060208201518160010190805190602001906106bc929190610761565b5060408201518160020190805190602001906106d9929190610761565b509050505050505050565b60008060009054906101000a900473ffffffffffffffffffffffffffffffffffffffff1673ffffffffffffffffffffffffffffffffffffffff163373ffffffffffffffffffffffffffffffffffffffff1614151561074157600080fd5b6004600081548110151561075157fe5b9060005260206000200154905090565b828054600181600116156101000203166002900490600052602060002090601f016020900481019282601f106107a257805160ff19168380011785556107d0565b828001600101855582156107d0579182015b828111156107cf5782518255916020019190600101906107b4565b5b5090506107dd91906107e1565b5090565b61080391905b808211156107ff5760008160009055506001016107e7565b5090565b905600a165627a7a72305820847900064b4c0f7cd44edde37fe425dc7767ad999a6408c24a68e224b4c997480029",
  "source": "pragma solidity ^0.4.17;\n\nimport \"./Mortal.sol\";\nimport \"../interfaces/OracleQuery.sol\";\nimport \"../interfaces/OracleResponse.sol\";\n\ncontract OracleStatic is Mortal, IOracleQuery {\n    mapping(string => uint256) private prices;\n\n    struct QueryObj {\n        address sender;\n        string queryType; // get, post,\n        string data;\n    }\n\n    function OracleStatic() public {\n        prices['get'] = 1;\n        prices['post'] = 1;\n    }\n\n    mapping(uint256 => QueryObj) queries;\n    uint256 trackerIndex = 0;\n    uint256[] queriesQue;\n\n    event NewRequest(address sender, uint256 id, string queryType, string data);\n\n    function getQueries() public onlyOwner view returns (uint256) {\n        return queriesQue[0];\n    }\n\n    function query(uint256 id, string queryType, string data) external payable {\n        NewRequest(msg.sender, id, queryType, data);\n        queries[id] = QueryObj({ sender: msg.sender, queryType: queryType, data: data });\n    }\n\n    function response(uint256 id, string responseData) public onlyOwner {\n        IOracleResponse(queries[id].sender).__cb(id, responseData);\n    }\n\n}\n",
  "sourcePath": "/Users/sergiopereira/Code/Zillios/contracts/utils/OracleStatic.sol",
  "compiler": {
    "name": "solc",
    "version": "0.4.24+commit.e67f0147.Emscripten.clang"
  },
  "schemaVersion": "2.0.1",
  "updatedAt": "2018-06-29T07:11:21.872Z"
}