{
  "contractName": "OwnerRegistry",
  "abi": [
    {
      "inputs": [],
      "payable": true,
      "stateMutability": "payable",
      "type": "constructor"
    },
    {
      "constant": false,
      "inputs": [
        {
          "name": "ownerAddress",
          "type": "address"
        },
        {
          "name": "ownerName",
          "type": "bytes32"
        },
        {
          "name": "ownerRole",
          "type": "uint256"
        }
      ],
      "name": "registerOwner",
      "outputs": [
        {
          "name": "",
          "type": "bool"
        }
      ],
      "payable": false,
      "stateMutability": "nonpayable",
      "type": "function"
    },
    {
      "constant": false,
      "inputs": [
        {
          "name": "ownerAddress",
          "type": "address"
        }
      ],
      "name": "getOwner",
      "outputs": [
        {
          "name": "",
          "type": "address"
        }
      ],
      "payable": false,
      "stateMutability": "nonpayable",
      "type": "function"
    },
    {
      "constant": false,
      "inputs": [
        {
          "name": "ownerAddress",
          "type": "address"
        }
      ],
      "name": "ownerExists",
      "outputs": [
        {
          "name": "",
          "type": "bool"
        }
      ],
      "payable": false,
      "stateMutability": "nonpayable",
      "type": "function"
    },
    {
      "constant": false,
      "inputs": [],
      "name": "howManyOwners",
      "outputs": [
        {
          "name": "",
          "type": "uint256"
        }
      ],
      "payable": false,
      "stateMutability": "nonpayable",
      "type": "function"
    }
  ],
  "bytecode": "0x608060405260006002819055506107b08061001b6000396000f300608060405260043610610062576000357c0100000000000000000000000000000000000000000000000000000000900463ffffffff16806355ac17191461006757806359dbfde8146100da578063a05e822a14610135578063fa54416114610160575b600080fd5b34801561007357600080fd5b506100c0600480360381019080803573ffffffffffffffffffffffffffffffffffffffff1690602001909291908035600019169060200190929190803590602001909291905050506101e3565b604051808215151515815260200191505060405180910390f35b3480156100e657600080fd5b5061011b600480360381019080803573ffffffffffffffffffffffffffffffffffffffff169060200190929190505050610363565b604051808215151515815260200191505060405180910390f35b34801561014157600080fd5b5061014a6103bf565b6040518082815260200191505060405180910390f35b34801561016c57600080fd5b506101a1600480360381019080803573ffffffffffffffffffffffffffffffffffffffff1690602001909291905050506103c9565b604051808273ffffffffffffffffffffffffffffffffffffffff1673ffffffffffffffffffffffffffffffffffffffff16815260200191505060405180910390f35b60006101ee84610363565b1515610357578383836101ff610432565b808473ffffffffffffffffffffffffffffffffffffffff1673ffffffffffffffffffffffffffffffffffffffff16815260200183600019166000191681526020018281526020019350505050604051809103906000f080158015610267573d6000803e3d6000fd5b50600160008673ffffffffffffffffffffffffffffffffffffffff1673ffffffffffffffffffffffffffffffffffffffff16815260200190815260200160002060006101000a81548173ffffffffffffffffffffffffffffffffffffffff021916908373ffffffffffffffffffffffffffffffffffffffff16021790555060016000808673ffffffffffffffffffffffffffffffffffffffff1673ffffffffffffffffffffffffffffffffffffffff16815260200190815260200160002060006101000a81548160ff0219169083151502179055506002600081548092919060010191905055506001905061035c565b600090505b9392505050565b6000600115156000808473ffffffffffffffffffffffffffffffffffffffff1673ffffffffffffffffffffffffffffffffffffffff16815260200190815260200160002060009054906101000a900460ff161515149050919050565b6000600254905090565b6000600160008373ffffffffffffffffffffffffffffffffffffffff1673ffffffffffffffffffffffffffffffffffffffff16815260200190815260200160002060009054906101000a900473ffffffffffffffffffffffffffffffffffffffff169050919050565b60405161034280610443833901905600608060405234801561001057600080fd5b50604051606080610342833981018060405281019080805190602001909291908051906020019092919080519060200190929190505050826000806101000a81548173ffffffffffffffffffffffffffffffffffffffff021916908373ffffffffffffffffffffffffffffffffffffffff160217905550816001816000191690555080600281905550505050610297806100ab6000396000f30060806040526004361061006d576000357c0100000000000000000000000000000000000000000000000000000000900463ffffffff16806317d7de7c1461007257806336ad823f146100a55780635d1ca631146100ea5780638318c2b314610141578063fde081741461019c575b600080fd5b34801561007e57600080fd5b506100876101c7565b60405180826000191660001916815260200191505060405180910390f35b3480156100b157600080fd5b506100d0600480360381019080803590602001909291905050506101d1565b604051808215151515815260200191505060405180910390f35b3480156100f657600080fd5b506100ff6101df565b604051808273ffffffffffffffffffffffffffffffffffffffff1673ffffffffffffffffffffffffffffffffffffffff16815260200191505060405180910390f35b34801561014d57600080fd5b50610182600480360381019080803573ffffffffffffffffffffffffffffffffffffffff169060200190929190505050610208565b604051808215151515815260200191505060405180910390f35b3480156101a857600080fd5b506101b1610261565b6040518082815260200191505060405180910390f35b6000600154905090565b600081600254149050919050565b60008060009054906101000a900473ffffffffffffffffffffffffffffffffffffffff16905090565b60008173ffffffffffffffffffffffffffffffffffffffff166000809054906101000a900473ffffffffffffffffffffffffffffffffffffffff1673ffffffffffffffffffffffffffffffffffffffff16149050919050565b60006002549050905600a165627a7a723058207d2e5cda0ee8928b4081370694f4a3c3ea191cfe35ddebc230743feda5e3a3ea0029a165627a7a723058201fe6f032ed9cbc706a20e1c2ef139a86b4aef91f9c9266bf887edf07804566170029",
  "source": "pragma solidity ^0.4.17;\n\nimport \"./PropertyOwner.sol\";\n\ncontract OwnerRegistry {\n    mapping (address => bool) private ownersExist;\n    mapping (address => PropertyOwner) private owners;\n    uint256 private countOwners;\n\n    function OwnerRegistry() public payable {\n        countOwners = 0;\n\n        //baseline data\n        /*registerOwner(0xca35b7d915458ef540ade6068dfe2f44e8fa733c, \"sergio\", 1);\n        registerOwner(0x14723a09acff6d2a60dcdf7aa4aff308fddc160c, \"eduardo\", 1);\n        registerOwner(0x4b0897b0513fdc7c541b6d9d7e929c4e5364d2db, \"alberto\", 1);\n        registerOwner(0x583031d1113ad414f02576bd6afabfb302140225, \"junior\", 1);\n        registerOwner(0xdd870fa1b7c4700f2bd7f44238821c26f7392148, \"bas\", 1);*/\n    }\n\n    function registerOwner(address ownerAddress, bytes32 ownerName, uint256 ownerRole) public returns (bool) {\n        if (!ownerExists(ownerAddress)) {\n            owners[ownerAddress] = new PropertyOwner(ownerAddress, ownerName, ownerRole);\n            ownersExist[ownerAddress] = true;\n            countOwners++;\n            return true;\n        }\n        else {\n            return false;\n        }\n    }\n\n    function getOwner(address ownerAddress) public returns (PropertyOwner) {\n        return owners[ownerAddress];\n    }\n\n    function ownerExists(address ownerAddress) public returns (bool) {\n        return ownersExist[ownerAddress] == true;\n    }\n\n    function howManyOwners() public returns (uint256) {\n        return countOwners;\n    }\n}\n",
  "sourcePath": "/Users/sergiopereira/Code/Zillios/contracts/src/OwnerRegistry.sol",
  "compiler": {
    "name": "solc",
    "version": "0.4.24+commit.e67f0147.Emscripten.clang"
  },
  "schemaVersion": "2.0.1",
  "updatedAt": "2018-06-29T07:11:21.626Z"
}