{
  "contractName": "Property",
  "abi": [
    {
      "inputs": [
        {
          "name": "_propertyAddress",
          "type": "address"
        },
        {
          "name": "_ownerAddress",
          "type": "address"
        },
        {
          "name": "_agentAddress",
          "type": "address"
        },
        {
          "name": "_propertyHash",
          "type": "string"
        }
      ],
      "payable": false,
      "stateMutability": "nonpayable",
      "type": "constructor"
    },
    {
      "anonymous": false,
      "inputs": [
        {
          "indexed": false,
          "name": "eventId",
          "type": "string"
        },
        {
          "indexed": false,
          "name": "eventDescriptor",
          "type": "string"
        }
      ],
      "name": "OnChange",
      "type": "event"
    },
    {
      "constant": false,
      "inputs": [
        {
          "name": "agentAddress",
          "type": "address"
        }
      ],
      "name": "addAgent",
      "outputs": [
        {
          "name": "",
          "type": "bool"
        }
      ],
      "payable": false,
      "stateMutability": "nonpayable",
      "type": "function"
    },
    {
      "constant": false,
      "inputs": [
        {
          "name": "agentAddress",
          "type": "address"
        }
      ],
      "name": "removeAgent",
      "outputs": [
        {
          "name": "",
          "type": "bool"
        }
      ],
      "payable": false,
      "stateMutability": "nonpayable",
      "type": "function"
    },
    {
      "constant": false,
      "inputs": [
        {
          "name": "agentAddress",
          "type": "address"
        }
      ],
      "name": "requestInvolvement",
      "outputs": [],
      "payable": false,
      "stateMutability": "nonpayable",
      "type": "function"
    },
    {
      "constant": false,
      "inputs": [
        {
          "name": "addressToApprove",
          "type": "address"
        }
      ],
      "name": "approveInvolvementRequest",
      "outputs": [
        {
          "name": "",
          "type": "bool"
        }
      ],
      "payable": false,
      "stateMutability": "nonpayable",
      "type": "function"
    },
    {
      "constant": false,
      "inputs": [
        {
          "name": "newOwnerAddress",
          "type": "address"
        }
      ],
      "name": "transferOwnership",
      "outputs": [
        {
          "name": "",
          "type": "bool"
        }
      ],
      "payable": false,
      "stateMutability": "nonpayable",
      "type": "function"
    },
    {
      "constant": false,
      "inputs": [
        {
          "name": "newPropertyAddress",
          "type": "address"
        },
        {
          "name": "newPropertyOwnerAddress",
          "type": "address"
        },
        {
          "name": "newPropertyAgentAddress",
          "type": "address"
        },
        {
          "name": "newPropertyHash",
          "type": "string"
        }
      ],
      "name": "updateProperty",
      "outputs": [
        {
          "name": "",
          "type": "bool"
        }
      ],
      "payable": false,
      "stateMutability": "nonpayable",
      "type": "function"
    },
    {
      "constant": false,
      "inputs": [
        {
          "name": "agentAddress",
          "type": "address"
        }
      ],
      "name": "isAgentOwner",
      "outputs": [
        {
          "name": "",
          "type": "bool"
        }
      ],
      "payable": false,
      "stateMutability": "nonpayable",
      "type": "function"
    },
    {
      "constant": false,
      "inputs": [
        {
          "name": "agentAddress",
          "type": "address"
        }
      ],
      "name": "isAgentInvolved",
      "outputs": [
        {
          "name": "",
          "type": "bool"
        }
      ],
      "payable": false,
      "stateMutability": "nonpayable",
      "type": "function"
    },
    {
      "constant": false,
      "inputs": [],
      "name": "howManyAgentsInvolved",
      "outputs": [
        {
          "name": "",
          "type": "uint256"
        }
      ],
      "payable": false,
      "stateMutability": "nonpayable",
      "type": "function"
    },
    {
      "constant": false,
      "inputs": [
        {
          "name": "agentAddress",
          "type": "address"
        }
      ],
      "name": "isAgentPendingApproval",
      "outputs": [
        {
          "name": "",
          "type": "bool"
        }
      ],
      "payable": false,
      "stateMutability": "nonpayable",
      "type": "function"
    },
    {
      "constant": false,
      "inputs": [],
      "name": "howManyPendingRequests",
      "outputs": [
        {
          "name": "",
          "type": "uint256"
        }
      ],
      "payable": false,
      "stateMutability": "nonpayable",
      "type": "function"
    },
    {
      "constant": false,
      "inputs": [],
      "name": "howManyUpdates",
      "outputs": [
        {
          "name": "",
          "type": "uint256"
        }
      ],
      "payable": false,
      "stateMutability": "nonpayable",
      "type": "function"
    },
    {
      "constant": false,
      "inputs": [],
      "name": "getPropertyOwner",
      "outputs": [
        {
          "name": "",
          "type": "address"
        }
      ],
      "payable": false,
      "stateMutability": "nonpayable",
      "type": "function"
    },
    {
      "constant": false,
      "inputs": [],
      "name": "getPropertyHash",
      "outputs": [
        {
          "name": "",
          "type": "string"
        }
      ],
      "payable": false,
      "stateMutability": "nonpayable",
      "type": "function"
    },
    {
      "constant": false,
      "inputs": [],
      "name": "getPropertyLastAuthor",
      "outputs": [
        {
          "name": "",
          "type": "address"
        }
      ],
      "payable": false,
      "stateMutability": "nonpayable",
      "type": "function"
    }
  ],
  "bytecode": "0x60806040523480156200001157600080fd5b5060405162001efc38038062001efc833981018060405281019080805190602001909291908051906020019092919080519060200190929190805182019291905050506000620000606200079f565b604051809103906000f0801580156200007d573d6000803e3d6000fd5b50600160006101000a81548173ffffffffffffffffffffffffffffffffffffffff021916908373ffffffffffffffffffffffffffffffffffffffff160217905550600160009054906101000a900473ffffffffffffffffffffffffffffffffffffffff1673ffffffffffffffffffffffffffffffffffffffff166394bf6107866040518263ffffffff167c0100000000000000000000000000000000000000000000000000000000028152600401808273ffffffffffffffffffffffffffffffffffffffff1673ffffffffffffffffffffffffffffffffffffffff168152602001915050602060405180830381600087803b1580156200017c57600080fd5b505af115801562000191573d6000803e3d6000fd5b505050506040513d6020811015620001a857600080fd5b810190808051906020019092919050505015620002c257600160009054906101000a900473ffffffffffffffffffffffffffffffffffffffff1673ffffffffffffffffffffffffffffffffffffffff1663952ba6d4866040518263ffffffff167c0100000000000000000000000000000000000000000000000000000000028152600401808273ffffffffffffffffffffffffffffffffffffffff1673ffffffffffffffffffffffffffffffffffffffff168152602001915050602060405180830381600087803b1580156200027d57600080fd5b505af115801562000292573d6000803e3d6000fd5b505050506040513d6020811015620002a957600080fd5b8101908080519060200190929190505050905062000794565b6001600a60003373ffffffffffffffffffffffffffffffffffffffff1673ffffffffffffffffffffffffffffffffffffffff16815260200190815260200160002060006101000a81548160ff0219169083151502179055506001600b819055506000600d8190555084600260000160006101000a81548173ffffffffffffffffffffffffffffffffffffffff021916908373ffffffffffffffffffffffffffffffffffffffff16021790555083600260010160006101000a81548173ffffffffffffffffffffffffffffffffffffffff021916908373ffffffffffffffffffffffffffffffffffffffff160217905550846002800160006101000a81548173ffffffffffffffffffffffffffffffffffffffff021916908373ffffffffffffffffffffffffffffffffffffffff160217905550816002600301908051906020019062000410929190620007b0565b50600060026004018190555033600260050160006101000a81548173ffffffffffffffffffffffffffffffffffffffff021916908373ffffffffffffffffffffffffffffffffffffffff1602179055506000600981905550600260086000600960008154809291906001019190505581526020019081526020016000206000820160009054906101000a900473ffffffffffffffffffffffffffffffffffffffff168160000160006101000a81548173ffffffffffffffffffffffffffffffffffffffff021916908373ffffffffffffffffffffffffffffffffffffffff1602179055506001820160009054906101000a900473ffffffffffffffffffffffffffffffffffffffff168160010160006101000a81548173ffffffffffffffffffffffffffffffffffffffff021916908373ffffffffffffffffffffffffffffffffffffffff1602179055506002820160009054906101000a900473ffffffffffffffffffffffffffffffffffffffff168160020160006101000a81548173ffffffffffffffffffffffffffffffffffffffff021916908373ffffffffffffffffffffffffffffffffffffffff16021790555060038201816003019080546001816001161561010002031660029004620005eb92919062000837565b50600482015481600401556005820160009054906101000a900473ffffffffffffffffffffffffffffffffffffffff168160050160006101000a81548173ffffffffffffffffffffffffffffffffffffffff021916908373ffffffffffffffffffffffffffffffffffffffff160217905550905050309050600160009054906101000a900473ffffffffffffffffffffffffffffffffffffffff1673ffffffffffffffffffffffffffffffffffffffff166302fb243a86306040518363ffffffff167c0100000000000000000000000000000000000000000000000000000000028152600401808373ffffffffffffffffffffffffffffffffffffffff1673ffffffffffffffffffffffffffffffffffffffff1681526020018273ffffffffffffffffffffffffffffffffffffffff1673ffffffffffffffffffffffffffffffffffffffff16815260200192505050602060405180830381600087803b1580156200075557600080fd5b505af11580156200076a573d6000803e3d6000fd5b505050506040513d60208110156200078157600080fd5b8101908080519060200190929190505050505b5050505050620008ed565b60405161040f8062001aed83390190565b828054600181600116156101000203166002900490600052602060002090601f016020900481019282601f10620007f357805160ff191683800117855562000824565b8280016001018555821562000824579182015b828111156200082357825182559160200191906001019062000806565b5b509050620008339190620008c5565b5090565b828054600181600116156101000203166002900490600052602060002090601f016020900481019282601f10620008725780548555620008b2565b82800160010185558215620008b257600052602060002091601f016020900482015b82811115620008b157825482559160010191906001019062000894565b5b509050620008c19190620008c5565b5090565b620008ea91905b80821115620008e6576000816000905550600101620008cc565b5090565b90565b6111f080620008fd6000396000f3006080604052600436106100db576000357c0100000000000000000000000000000000000000000000000000000000900463ffffffff168063018962ec146100e0578063471645341461013b578063693448e51461019257806384e79842146101d557806396f861ef1461023057806397a6278e1461025b578063a1b6c903146102b6578063adeb5cda14610311578063bde38c6a146103f2578063c07b8e0614610482578063de26d0c7146104dd578063e0a5918914610538578063e35f46511461058f578063f2fde38b146105ba578063fcb5cdaa14610615575b600080fd5b3480156100ec57600080fd5b50610121600480360381019080803573ffffffffffffffffffffffffffffffffffffffff169060200190929190505050610640565b604051808215151515815260200191505060405180910390f35b34801561014757600080fd5b50610150610771565b604051808273ffffffffffffffffffffffffffffffffffffffff1673ffffffffffffffffffffffffffffffffffffffff16815260200191505060405180910390f35b34801561019e57600080fd5b506101d3600480360381019080803573ffffffffffffffffffffffffffffffffffffffff16906020019092919050505061079e565b005b3480156101e157600080fd5b50610216600480360381019080803573ffffffffffffffffffffffffffffffffffffffff16906020019092919050505061080b565b604051808215151515815260200191505060405180910390f35b34801561023c57600080fd5b5061024561093e565b6040518082815260200191505060405180910390f35b34801561026757600080fd5b5061029c600480360381019080803573ffffffffffffffffffffffffffffffffffffffff169060200190929190505050610948565b604051808215151515815260200191505060405180910390f35b3480156102c257600080fd5b506102f7600480360381019080803573ffffffffffffffffffffffffffffffffffffffff169060200190929190505050610a0e565b604051808215151515815260200191505060405180910390f35b34801561031d57600080fd5b506103d8600480360381019080803573ffffffffffffffffffffffffffffffffffffffff169060200190929190803573ffffffffffffffffffffffffffffffffffffffff169060200190929190803573ffffffffffffffffffffffffffffffffffffffff169060200190929190803590602001908201803590602001908080601f0160208091040260200160405190810160405280939291908181526020018383808284378201915050505050509192919290505050610a6b565b604051808215151515815260200191505060405180910390f35b3480156103fe57600080fd5b50610407610d9b565b6040518080602001828103825283818151815260200191508051906020019080838360005b8381101561044757808201518184015260208101905061042c565b50505050905090810190601f1680156104745780820380516001836020036101000a031916815260200191505b509250505060405180910390f35b34801561048e57600080fd5b506104c3600480360381019080803573ffffffffffffffffffffffffffffffffffffffff169060200190929190505050610e40565b604051808215151515815260200191505060405180910390f35b3480156104e957600080fd5b5061051e600480360381019080803573ffffffffffffffffffffffffffffffffffffffff169060200190929190505050610e9d565b604051808215151515815260200191505060405180910390f35b34801561054457600080fd5b5061054d610ef6565b604051808273ffffffffffffffffffffffffffffffffffffffff1673ffffffffffffffffffffffffffffffffffffffff16815260200191505060405180910390f35b34801561059b57600080fd5b506105a4610f23565b6040518082815260200191505060405180910390f35b3480156105c657600080fd5b506105fb600480360381019080803573ffffffffffffffffffffffffffffffffffffffff169060200190929190505050610f2d565b604051808215151515815260200191505060405180910390f35b34801561062157600080fd5b5061062a61108e565b6040518082815260200191505060405180910390f35b600060011515600c60008473ffffffffffffffffffffffffffffffffffffffff1673ffffffffffffffffffffffffffffffffffffffff16815260200190815260200160002060009054906101000a900460ff1615151415610767576001600a60008473ffffffffffffffffffffffffffffffffffffffff1673ffffffffffffffffffffffffffffffffffffffff16815260200190815260200160002060006101000a81548160ff0219169083151502179055506000600c60008473ffffffffffffffffffffffffffffffffffffffff1673ffffffffffffffffffffffffffffffffffffffff16815260200190815260200160002060006101000a81548160ff021916908315150217905550600d60008154809291906001900391905055506001905061076c565b600090505b919050565b6000600260050160009054906101000a900473ffffffffffffffffffffffffffffffffffffffff16905090565b6001600c60008373ffffffffffffffffffffffffffffffffffffffff1673ffffffffffffffffffffffffffffffffffffffff16815260200190815260200160002060006101000a81548160ff021916908315150217905550600d6000815480929190600101919050555050565b60003373ffffffffffffffffffffffffffffffffffffffff166000809054906101000a900473ffffffffffffffffffffffffffffffffffffffff1673ffffffffffffffffffffffffffffffffffffffff1614151561086857600080fd5b60001515600a60008473ffffffffffffffffffffffffffffffffffffffff1673ffffffffffffffffffffffffffffffffffffffff16815260200190815260200160002060009054906101000a900460ff1615151415610934576001600a60008473ffffffffffffffffffffffffffffffffffffffff1673ffffffffffffffffffffffffffffffffffffffff16815260200190815260200160002060006101000a81548160ff021916908315150217905550600b6000815480929190600101919050555060019050610939565b600090505b919050565b6000600d54905090565b600060011515600a60008473ffffffffffffffffffffffffffffffffffffffff1673ffffffffffffffffffffffffffffffffffffffff16815260200190815260200160002060009054906101000a900460ff1615151415610a04576000600a60008473ffffffffffffffffffffffffffffffffffffffff1673ffffffffffffffffffffffffffffffffffffffff16815260200190815260200160002060006101000a81548160ff02191690831515021790555060019050610a09565b600090505b919050565b600060011515600a60008473ffffffffffffffffffffffffffffffffffffffff1673ffffffffffffffffffffffffffffffffffffffff16815260200190815260200160002060009054906101000a900460ff161515149050919050565b600080858160000160006101000a81548173ffffffffffffffffffffffffffffffffffffffff021916908373ffffffffffffffffffffffffffffffffffffffff160217905550848160010160006101000a81548173ffffffffffffffffffffffffffffffffffffffff021916908373ffffffffffffffffffffffffffffffffffffffff160217905550838160020160006101000a81548173ffffffffffffffffffffffffffffffffffffffff021916908373ffffffffffffffffffffffffffffffffffffffff16021790555082816003019080519060200190610b4f929190611098565b5060008160040181905550338160050160006101000a81548173ffffffffffffffffffffffffffffffffffffffff021916908373ffffffffffffffffffffffffffffffffffffffff1602179055508060086000600960008154809291906001019190505581526020019081526020016000206000820160009054906101000a900473ffffffffffffffffffffffffffffffffffffffff168160000160006101000a81548173ffffffffffffffffffffffffffffffffffffffff021916908373ffffffffffffffffffffffffffffffffffffffff1602179055506001820160009054906101000a900473ffffffffffffffffffffffffffffffffffffffff168160010160006101000a81548173ffffffffffffffffffffffffffffffffffffffff021916908373ffffffffffffffffffffffffffffffffffffffff1602179055506002820160009054906101000a900473ffffffffffffffffffffffffffffffffffffffff168160020160006101000a81548173ffffffffffffffffffffffffffffffffffffffff021916908373ffffffffffffffffffffffffffffffffffffffff16021790555060038201816003019080546001816001161561010002031660029004610d1d929190611118565b50600482015481600401556005820160009054906101000a900473ffffffffffffffffffffffffffffffffffffffff168160050160006101000a81548173ffffffffffffffffffffffffffffffffffffffff021916908373ffffffffffffffffffffffffffffffffffffffff16021790555090505050949350505050565b606060026003018054600181600116156101000203166002900480601f016020809104026020016040519081016040528092919081815260200182805460018160011615610100020316600290048015610e365780601f10610e0b57610100808354040283529160200191610e36565b820191906000526020600020905b815481529060010190602001808311610e1957829003601f168201915b5050505050905090565b600060011515600c60008473ffffffffffffffffffffffffffffffffffffffff1673ffffffffffffffffffffffffffffffffffffffff16815260200190815260200160002060009054906101000a900460ff161515149050919050565b60008173ffffffffffffffffffffffffffffffffffffffff166000809054906101000a900473ffffffffffffffffffffffffffffffffffffffff1673ffffffffffffffffffffffffffffffffffffffff16149050919050565b6000600260010160009054906101000a900473ffffffffffffffffffffffffffffffffffffffff16905090565b6000600b54905090565b600060011515600a60003373ffffffffffffffffffffffffffffffffffffffff1673ffffffffffffffffffffffffffffffffffffffff16815260200190815260200160002060009054906101000a900460ff16151514156110845761107a600260000160009054906101000a900473ffffffffffffffffffffffffffffffffffffffff16836002800160009054906101000a900473ffffffffffffffffffffffffffffffffffffffff1660026003018054600181600116156101000203166002900480601f0160208091040260200160405190810160405280929190818152602001828054600181600116156101000203166002900480156110705780601f1061104557610100808354040283529160200191611070565b820191906000526020600020905b81548152906001019060200180831161105357829003601f168201915b5050505050610a6b565b5060019050611089565b600090505b919050565b6000600954905090565b828054600181600116156101000203166002900490600052602060002090601f016020900481019282601f106110d957805160ff1916838001178555611107565b82800160010185558215611107579182015b828111156111065782518255916020019190600101906110eb565b5b509050611114919061119f565b5090565b828054600181600116156101000203166002900490600052602060002090601f016020900481019282601f10611151578054855561118e565b8280016001018555821561118e57600052602060002091601f016020900482015b8281111561118d578254825591600101919060010190611172565b5b50905061119b919061119f565b5090565b6111c191905b808211156111bd5760008160009055506001016111a5565b5090565b905600a165627a7a7230582041c50337f3e87a09ae0dea3d16899b399d3187f3e54a005dd3051b6ac2ed30110029608060405260006004819055506103f48061001b6000396000f300608060405260043610610062576000357c0100000000000000000000000000000000000000000000000000000000900463ffffffff16806302fb243a1461006757806356fe4ba2146100e257806394bf61071461010d578063952ba6d414610168575b600080fd5b34801561007357600080fd5b506100c8600480360381019080803573ffffffffffffffffffffffffffffffffffffffff169060200190929190803573ffffffffffffffffffffffffffffffffffffffff1690602001909291905050506101eb565b604051808215151515815260200191505060405180910390f35b3480156100ee57600080fd5b506100f76102f8565b6040518082815260200191505060405180910390f35b34801561011957600080fd5b5061014e600480360381019080803573ffffffffffffffffffffffffffffffffffffffff169060200190929190505050610302565b604051808215151515815260200191505060405180910390f35b34801561017457600080fd5b506101a9600480360381019080803573ffffffffffffffffffffffffffffffffffffffff16906020019092919050505061035f565b604051808273ffffffffffffffffffffffffffffffffffffffff1673ffffffffffffffffffffffffffffffffffffffff16815260200191505060405180910390f35b60006101f683610302565b15156102ed5781600360008573ffffffffffffffffffffffffffffffffffffffff1673ffffffffffffffffffffffffffffffffffffffff16815260200190815260200160002060006101000a81548173ffffffffffffffffffffffffffffffffffffffff021916908373ffffffffffffffffffffffffffffffffffffffff1602179055506001600260008573ffffffffffffffffffffffffffffffffffffffff1673ffffffffffffffffffffffffffffffffffffffff16815260200190815260200160002060006101000a81548160ff021916908315150217905550600460008154809291906001019190505550600190506102f2565b600090505b92915050565b6000600454905090565b600060011515600260008473ffffffffffffffffffffffffffffffffffffffff1673ffffffffffffffffffffffffffffffffffffffff16815260200190815260200160002060009054906101000a900460ff161515149050919050565b6000600360008373ffffffffffffffffffffffffffffffffffffffff1673ffffffffffffffffffffffffffffffffffffffff16815260200190815260200160002060009054906101000a900473ffffffffffffffffffffffffffffffffffffffff1690509190505600a165627a7a72305820d4c6cb8b246e0557a23517fccfbf96981cf1029366721b9d90691b8fc9bcfafa0029",
  "source": "pragma solidity ^0.4.17;\n\nimport \"./PropertyRegistry.sol\";\n\n/*\n * Defines a Property and its state\n */\ncontract Property {\n    address private owner;\n\n    PropertyRegistry propertyRegistry;\n\n    struct PropertyState {\n        address propertyAddress;\n        address propertyOwnerAddress;\n        address propertyAgentAddress;\n        string propertyHash;\n        uint256 timestamp;\n        address lastUpdatedBy;\n    }\n\n    PropertyState private currentState;\n    mapping (uint256 => PropertyState) private changeLog;\n    uint256 private countUpdates;\n\n    mapping(address => bool) private agentsInvolved;\n    uint256 countAgentsInvolved;\n\n    mapping(address => bool) private pendingRequests;\n    uint256 countPendingRequests;\n\n    event OnChange(string eventId, string eventDescriptor);\n\n    function Property(address _propertyAddress, address _ownerAddress, address _agentAddress, string _propertyHash) public {\n        //\"0xbfd5b36fa6f5de48d807397e9b68d0a0d694e38e\"\n        propertyRegistry = new PropertyRegistry();\n        //require (propertyRegistry.actorExists(msg.sender));\n\n        Property property;\n        if (propertyRegistry.propertyExists(_propertyAddress)) {\n            property = propertyRegistry.getProperty(_propertyAddress);\n        }\n        else {\n            agentsInvolved[msg.sender] = true;\n            countAgentsInvolved = 1;\n            countPendingRequests = 0;\n\n            currentState.propertyAddress = _propertyAddress;\n            currentState.propertyOwnerAddress = _ownerAddress;\n            currentState.propertyAgentAddress = _propertyAddress;\n            currentState.propertyHash = _propertyHash;\n            currentState.timestamp = 0;\n            currentState.lastUpdatedBy = msg.sender;\n\n            countUpdates = 0;\n            changeLog[countUpdates++] = currentState;\n\n            property = this;\n            propertyRegistry.registerProperty(_propertyAddress, this);\n        }\n    }\n\n    function addAgent(address agentAddress) public returns (bool) {\n        require (owner == msg.sender);\n\n        if (agentsInvolved[agentAddress] == false) {\n            agentsInvolved[agentAddress] = true;\n            countAgentsInvolved++;\n            return true;\n        }\n        else {\n            return false;\n        }\n    }\n\n    function removeAgent(address agentAddress) public returns (bool) {\n        //require (owner == msg.sender && propertyRegistry.actorExists(agentAddress));\n\n        if (agentsInvolved[agentAddress] == true) {\n            agentsInvolved[agentAddress] = false;\n            return true;\n        }\n        else {\n            return false;\n        }\n    }\n\n    function requestInvolvement(address agentAddress) public {\n        //require (propertyRegistry.actorExists(msg.sender));\n\n        //pendingRequests[msg.sender] = true;\n        pendingRequests[agentAddress] = true;\n        countPendingRequests++;\n    }\n\n    function approveInvolvementRequest(address addressToApprove) public returns (bool) {\n        //require (owner == msg.sender);\n\n        if (pendingRequests[addressToApprove] == true) {\n            agentsInvolved[addressToApprove] = true;\n            pendingRequests[addressToApprove] = false;\n            countPendingRequests--;\n            return true;\n        }\n        else {\n            return false;\n        }\n    }\n\n    function transferOwnership(address newOwnerAddress) public returns (bool) {\n        //require (owner == msg.sender);\n\n        if (agentsInvolved[msg.sender] == true) {\n            updateProperty(currentState.propertyAddress, newOwnerAddress, currentState.propertyAgentAddress, currentState.propertyHash);\n            return true;\n        }\n        else {\n            return false;\n        }\n    }\n\n    function updateProperty(address newPropertyAddress, address newPropertyOwnerAddress, address newPropertyAgentAddress, string newPropertyHash) public returns (bool) {\n        //require(propertyRegistry.actorExists(msg.sender));\n\n        PropertyState storage newState;\n        newState.propertyAddress = newPropertyAddress;\n        newState.propertyOwnerAddress = newPropertyOwnerAddress;\n        newState.propertyAgentAddress = newPropertyAgentAddress;\n        newState.propertyHash = newPropertyHash;\n        newState.timestamp = 0;\n        newState.lastUpdatedBy = msg.sender;\n\n        changeLog[countUpdates++] = newState;\n\n        //OnChange(newPropertyAddress, newPropertyOwnerAddress, newPropertyAgentAddress, newPropertyHash);\n    }\n\n    function isAgentOwner(address agentAddress) public returns (bool) {\n        return owner == agentAddress;\n    }\n\n    function isAgentInvolved(address agentAddress) public returns (bool) {\n        return agentsInvolved[agentAddress] == true;\n    }\n\n    function howManyAgentsInvolved() public returns (uint256) {\n        return countAgentsInvolved;\n    }\n\n    function isAgentPendingApproval(address agentAddress) public returns (bool) {\n        return pendingRequests[agentAddress] == true;\n    }\n\n    function howManyPendingRequests() public returns (uint256) {\n        return countPendingRequests;\n    }\n\n    function howManyUpdates() public returns (uint256) {\n        return countUpdates;\n    }\n\n    function getPropertyOwner() public returns (address) {\n        return currentState.propertyOwnerAddress;\n    }\n\n    function getPropertyHash() public returns (string) {\n        return currentState.propertyHash;\n    }\n\n    function getPropertyLastAuthor() public returns (address) {\n        return currentState.lastUpdatedBy;\n    }\n}\n",
  "sourcePath": "/Users/sergiopereira/Code/Zillios/contracts/src/Property.sol",
  "compiler": {
    "name": "solc",
    "version": "0.4.24+commit.e67f0147.Emscripten.clang"
  },
  "schemaVersion": "2.0.1",
  "updatedAt": "2018-06-29T07:11:21.626Z"
}