{
  "contractName": "PropertyRegistry",
  "abi": [
    {
      "inputs": [],
      "payable": true,
      "stateMutability": "payable",
      "type": "constructor"
    },
    {
      "constant": false,
      "inputs": [
        {
          "name": "propertyAddress",
          "type": "address"
        },
        {
          "name": "property",
          "type": "address"
        }
      ],
      "name": "registerProperty",
      "outputs": [
        {
          "name": "",
          "type": "bool"
        }
      ],
      "payable": false,
      "stateMutability": "nonpayable",
      "type": "function"
    },
    {
      "constant": false,
      "inputs": [
        {
          "name": "propertyAddress",
          "type": "address"
        }
      ],
      "name": "getProperty",
      "outputs": [
        {
          "name": "",
          "type": "address"
        }
      ],
      "payable": false,
      "stateMutability": "nonpayable",
      "type": "function"
    },
    {
      "constant": false,
      "inputs": [
        {
          "name": "propertyAddress",
          "type": "address"
        }
      ],
      "name": "propertyExists",
      "outputs": [
        {
          "name": "",
          "type": "bool"
        }
      ],
      "payable": false,
      "stateMutability": "nonpayable",
      "type": "function"
    },
    {
      "constant": false,
      "inputs": [],
      "name": "howManyProperties",
      "outputs": [
        {
          "name": "",
          "type": "uint256"
        }
      ],
      "payable": false,
      "stateMutability": "nonpayable",
      "type": "function"
    }
  ],
  "bytecode": "0x608060405260006004819055506103f48061001b6000396000f300608060405260043610610062576000357c0100000000000000000000000000000000000000000000000000000000900463ffffffff16806302fb243a1461006757806356fe4ba2146100e257806394bf61071461010d578063952ba6d414610168575b600080fd5b34801561007357600080fd5b506100c8600480360381019080803573ffffffffffffffffffffffffffffffffffffffff169060200190929190803573ffffffffffffffffffffffffffffffffffffffff1690602001909291905050506101eb565b604051808215151515815260200191505060405180910390f35b3480156100ee57600080fd5b506100f76102f8565b6040518082815260200191505060405180910390f35b34801561011957600080fd5b5061014e600480360381019080803573ffffffffffffffffffffffffffffffffffffffff169060200190929190505050610302565b604051808215151515815260200191505060405180910390f35b34801561017457600080fd5b506101a9600480360381019080803573ffffffffffffffffffffffffffffffffffffffff16906020019092919050505061035f565b604051808273ffffffffffffffffffffffffffffffffffffffff1673ffffffffffffffffffffffffffffffffffffffff16815260200191505060405180910390f35b60006101f683610302565b15156102ed5781600360008573ffffffffffffffffffffffffffffffffffffffff1673ffffffffffffffffffffffffffffffffffffffff16815260200190815260200160002060006101000a81548173ffffffffffffffffffffffffffffffffffffffff021916908373ffffffffffffffffffffffffffffffffffffffff1602179055506001600260008573ffffffffffffffffffffffffffffffffffffffff1673ffffffffffffffffffffffffffffffffffffffff16815260200190815260200160002060006101000a81548160ff021916908315150217905550600460008154809291906001019190505550600190506102f2565b600090505b92915050565b6000600454905090565b600060011515600260008473ffffffffffffffffffffffffffffffffffffffff1673ffffffffffffffffffffffffffffffffffffffff16815260200190815260200160002060009054906101000a900460ff161515149050919050565b6000600360008373ffffffffffffffffffffffffffffffffffffffff1673ffffffffffffffffffffffffffffffffffffffff16815260200190815260200160002060009054906101000a900473ffffffffffffffffffffffffffffffffffffffff1690509190505600a165627a7a72305820d4c6cb8b246e0557a23517fccfbf96981cf1029366721b9d90691b8fc9bcfafa0029",
  "source": "pragma solidity ^0.4.17;\n\nimport \"./Property.sol\";\nimport \"./OwnerRegistry.sol\";\nimport \"./AgentRegistry.sol\";\n\ncontract PropertyRegistry {\n    OwnerRegistry ownerRegistry;\n    AgentRegistry agentRegistry;\n\n    mapping (address => bool) private propertiesExist;\n    mapping (address => Property) private properties;\n    uint256 private countProperties;\n\n    function PropertyRegistry() public payable {\n        countProperties = 0;\n\n        //baseline data\n        /*registerProperty(0xca35b7d915458ef540ade6068dfe2f44e8fa733c, \"sergio\", 1);\n        registerProperty(0x14723a09acff6d2a60dcdf7aa4aff308fddc160c, \"eduardo\", 1);\n        registerProperty(0x4b0897b0513fdc7c541b6d9d7e929c4e5364d2db, \"alberto\", 1);\n        registerProperty(0x583031d1113ad414f02576bd6afabfb302140225, \"junior\", 1);\n        registerProperty(0xdd870fa1b7c4700f2bd7f44238821c26f7392148, \"bas\", 1);*/\n    }\n\n    function registerProperty(address propertyAddress, Property property) public returns (bool) {\n        if (!propertyExists(propertyAddress)) {\n            properties[propertyAddress] = property;\n            propertiesExist[propertyAddress] = true;\n            countProperties++;\n            return true;\n        }\n        else {\n            return false;\n        }\n    }\n\n    function getProperty(address propertyAddress) public returns (Property) {\n        return properties[propertyAddress];\n    }\n\n    function propertyExists(address propertyAddress) public returns (bool) {\n        return propertiesExist[propertyAddress] == true;\n    }\n\n    function howManyProperties() public returns (uint256) {\n        return countProperties;\n    }\n}\n",
  "sourcePath": "/Users/sergiopereira/Code/Zillios/contracts/src/PropertyRegistry.sol",
  "compiler": {
    "name": "solc",
    "version": "0.4.24+commit.e67f0147.Emscripten.clang"
  },
  "schemaVersion": "2.0.1",
  "updatedAt": "2018-06-29T07:11:21.629Z"
}