{
  "contractName": "PropertyOwner",
  "abi": [
    {
      "inputs": [
        {
          "name": "_id",
          "type": "address"
        },
        {
          "name": "_name",
          "type": "bytes32"
        },
        {
          "name": "_role",
          "type": "uint256"
        }
      ],
      "payable": false,
      "stateMutability": "nonpayable",
      "type": "constructor"
    },
    {
      "constant": false,
      "inputs": [
        {
          "name": "idToCompare",
          "type": "address"
        }
      ],
      "name": "isThisPropertyOwner",
      "outputs": [
        {
          "name": "",
          "type": "bool"
        }
      ],
      "payable": false,
      "stateMutability": "nonpayable",
      "type": "function"
    },
    {
      "constant": false,
      "inputs": [
        {
          "name": "roleToCompare",
          "type": "uint256"
        }
      ],
      "name": "hasThisRole",
      "outputs": [
        {
          "name": "",
          "type": "bool"
        }
      ],
      "payable": false,
      "stateMutability": "nonpayable",
      "type": "function"
    },
    {
      "constant": false,
      "inputs": [],
      "name": "getId",
      "outputs": [
        {
          "name": "",
          "type": "address"
        }
      ],
      "payable": false,
      "stateMutability": "nonpayable",
      "type": "function"
    },
    {
      "constant": false,
      "inputs": [],
      "name": "getName",
      "outputs": [
        {
          "name": "",
          "type": "bytes32"
        }
      ],
      "payable": false,
      "stateMutability": "nonpayable",
      "type": "function"
    },
    {
      "constant": false,
      "inputs": [],
      "name": "getRole",
      "outputs": [
        {
          "name": "",
          "type": "uint256"
        }
      ],
      "payable": false,
      "stateMutability": "nonpayable",
      "type": "function"
    }
  ],
  "bytecode": "0x608060405234801561001057600080fd5b50604051606080610342833981018060405281019080805190602001909291908051906020019092919080519060200190929190505050826000806101000a81548173ffffffffffffffffffffffffffffffffffffffff021916908373ffffffffffffffffffffffffffffffffffffffff160217905550816001816000191690555080600281905550505050610297806100ab6000396000f30060806040526004361061006d576000357c0100000000000000000000000000000000000000000000000000000000900463ffffffff16806317d7de7c1461007257806336ad823f146100a55780635d1ca631146100ea5780638318c2b314610141578063fde081741461019c575b600080fd5b34801561007e57600080fd5b506100876101c7565b60405180826000191660001916815260200191505060405180910390f35b3480156100b157600080fd5b506100d0600480360381019080803590602001909291905050506101d1565b604051808215151515815260200191505060405180910390f35b3480156100f657600080fd5b506100ff6101df565b604051808273ffffffffffffffffffffffffffffffffffffffff1673ffffffffffffffffffffffffffffffffffffffff16815260200191505060405180910390f35b34801561014d57600080fd5b50610182600480360381019080803573ffffffffffffffffffffffffffffffffffffffff169060200190929190505050610208565b604051808215151515815260200191505060405180910390f35b3480156101a857600080fd5b506101b1610261565b6040518082815260200191505060405180910390f35b6000600154905090565b600081600254149050919050565b60008060009054906101000a900473ffffffffffffffffffffffffffffffffffffffff16905090565b60008173ffffffffffffffffffffffffffffffffffffffff166000809054906101000a900473ffffffffffffffffffffffffffffffffffffffff1673ffffffffffffffffffffffffffffffffffffffff16149050919050565b60006002549050905600a165627a7a723058207d2e5cda0ee8928b4081370694f4a3c3ea191cfe35ddebc230743feda5e3a3ea0029",
  "source": "pragma solidity ^0.4.17;\n\ncontract PropertyOwner {\n    address private id;\n    bytes32 private name;\n    uint256 private role;\n\n    function PropertyOwner(address _id, bytes32 _name, uint256 _role) public {\n        id = _id;\n        name = _name;\n        role = _role;\n    }\n\n    function isThisPropertyOwner(address idToCompare) public returns (bool) {\n        return id == idToCompare;\n    }\n\n    function hasThisRole(uint256 roleToCompare) public returns (bool) {\n        return role == roleToCompare;\n    }\n\n    function getId() public returns (address) {\n        return id;\n    }\n\n    function getName() public returns (bytes32) {\n        return name;\n    }\n\n    function getRole() public returns (uint256) {\n        return role;\n    }\n}\n",
  "sourcePath": "/Users/sergiopereira/Code/Zillios/contracts/src/PropertyOwner.sol",
  "compiler": {
    "name": "solc",
    "version": "0.4.24+commit.e67f0147.Emscripten.clang"
  },
  "schemaVersion": "2.0.1",
  "updatedAt": "2018-06-29T07:11:21.628Z"
}