{
  "contractName": "ZillosCrowdsale",
  "abi": [
    {
      "constant": true,
      "inputs": [],
      "name": "tier_silver_completed",
      "outputs": [
        {
          "name": "",
          "type": "bool"
        }
      ],
      "payable": false,
      "stateMutability": "view",
      "type": "function"
    },
    {
      "constant": false,
      "inputs": [],
      "name": "finalizeCrowdsale",
      "outputs": [],
      "payable": false,
      "stateMutability": "nonpayable",
      "type": "function"
    },
    {
      "constant": true,
      "inputs": [],
      "name": "checkBurnTokens",
      "outputs": [
        {
          "name": "",
          "type": "bool"
        }
      ],
      "payable": false,
      "stateMutability": "view",
      "type": "function"
    },
    {
      "constant": true,
      "inputs": [],
      "name": "tier_bronze_completed",
      "outputs": [
        {
          "name": "",
          "type": "bool"
        }
      ],
      "payable": false,
      "stateMutability": "view",
      "type": "function"
    },
    {
      "constant": false,
      "inputs": [],
      "name": "getTokenAddress",
      "outputs": [
        {
          "name": "",
          "type": "address"
        }
      ],
      "payable": false,
      "stateMutability": "nonpayable",
      "type": "function"
    },
    {
      "constant": true,
      "inputs": [],
      "name": "teamFounderTimeLock",
      "outputs": [
        {
          "name": "",
          "type": "uint256"
        }
      ],
      "payable": false,
      "stateMutability": "view",
      "type": "function"
    },
    {
      "constant": true,
      "inputs": [],
      "name": "tier_gold_completed",
      "outputs": [
        {
          "name": "",
          "type": "bool"
        }
      ],
      "payable": false,
      "stateMutability": "view",
      "type": "function"
    },
    {
      "constant": true,
      "inputs": [],
      "name": "rewardsSupply",
      "outputs": [
        {
          "name": "",
          "type": "uint256"
        }
      ],
      "payable": false,
      "stateMutability": "view",
      "type": "function"
    },
    {
      "constant": true,
      "inputs": [],
      "name": "totalSupply",
      "outputs": [
        {
          "name": "",
          "type": "uint256"
        }
      ],
      "payable": false,
      "stateMutability": "view",
      "type": "function"
    },
    {
      "constant": true,
      "inputs": [],
      "name": "checkAlocatedBurn",
      "outputs": [
        {
          "name": "",
          "type": "bool"
        }
      ],
      "payable": false,
      "stateMutability": "view",
      "type": "function"
    },
    {
      "constant": false,
      "inputs": [
        {
          "name": "companyAddress",
          "type": "address"
        }
      ],
      "name": "grantCompanyToken",
      "outputs": [],
      "payable": false,
      "stateMutability": "nonpayable",
      "type": "function"
    },
    {
      "constant": true,
      "inputs": [],
      "name": "rate",
      "outputs": [
        {
          "name": "",
          "type": "uint256"
        }
      ],
      "payable": false,
      "stateMutability": "view",
      "type": "function"
    },
    {
      "constant": true,
      "inputs": [],
      "name": "tier_bronze_slots",
      "outputs": [
        {
          "name": "",
          "type": "uint256"
        }
      ],
      "payable": false,
      "stateMutability": "view",
      "type": "function"
    },
    {
      "constant": true,
      "inputs": [],
      "name": "companyVestingSupply",
      "outputs": [
        {
          "name": "",
          "type": "uint256"
        }
      ],
      "payable": false,
      "stateMutability": "view",
      "type": "function"
    },
    {
      "constant": false,
      "inputs": [],
      "name": "unpause",
      "outputs": [],
      "payable": false,
      "stateMutability": "nonpayable",
      "type": "function"
    },
    {
      "constant": true,
      "inputs": [],
      "name": "teamFounderSupply",
      "outputs": [
        {
          "name": "",
          "type": "uint256"
        }
      ],
      "payable": false,
      "stateMutability": "view",
      "type": "function"
    },
    {
      "constant": false,
      "inputs": [
        {
          "name": "recipients",
          "type": "address[]"
        },
        {
          "name": "values",
          "type": "uint256[]"
        }
      ],
      "name": "transferFunds",
      "outputs": [],
      "payable": false,
      "stateMutability": "nonpayable",
      "type": "function"
    },
    {
      "constant": false,
      "inputs": [],
      "name": "allocatedTokenBurn",
      "outputs": [
        {
          "name": "",
          "type": "bool"
        }
      ],
      "payable": false,
      "stateMutability": "nonpayable",
      "type": "function"
    },
    {
      "constant": true,
      "inputs": [],
      "name": "icoSupply",
      "outputs": [
        {
          "name": "",
          "type": "uint256"
        }
      ],
      "payable": false,
      "stateMutability": "view",
      "type": "function"
    },
    {
      "constant": false,
      "inputs": [
        {
          "name": "recipients",
          "type": "address[]"
        },
        {
          "name": "values",
          "type": "uint256[]"
        }
      ],
      "name": "bonusTransfers",
      "outputs": [],
      "payable": false,
      "stateMutability": "nonpayable",
      "type": "function"
    },
    {
      "constant": true,
      "inputs": [],
      "name": "tier_silver_slots",
      "outputs": [
        {
          "name": "",
          "type": "uint256"
        }
      ],
      "payable": false,
      "stateMutability": "view",
      "type": "function"
    },
    {
      "constant": true,
      "inputs": [],
      "name": "paused",
      "outputs": [
        {
          "name": "",
          "type": "bool"
        }
      ],
      "payable": false,
      "stateMutability": "view",
      "type": "function"
    },
    {
      "constant": true,
      "inputs": [],
      "name": "publicSupply",
      "outputs": [
        {
          "name": "",
          "type": "uint256"
        }
      ],
      "payable": false,
      "stateMutability": "view",
      "type": "function"
    },
    {
      "constant": false,
      "inputs": [],
      "name": "getVaultAddress",
      "outputs": [
        {
          "name": "",
          "type": "address"
        }
      ],
      "payable": false,
      "stateMutability": "nonpayable",
      "type": "function"
    },
    {
      "constant": true,
      "inputs": [],
      "name": "tier_copper_completed",
      "outputs": [
        {
          "name": "",
          "type": "bool"
        }
      ],
      "payable": false,
      "stateMutability": "view",
      "type": "function"
    },
    {
      "constant": true,
      "inputs": [],
      "name": "tier_bonus_suply",
      "outputs": [
        {
          "name": "",
          "type": "uint256"
        }
      ],
      "payable": false,
      "stateMutability": "view",
      "type": "function"
    },
    {
      "constant": true,
      "inputs": [],
      "name": "advisorSupply",
      "outputs": [
        {
          "name": "",
          "type": "uint256"
        }
      ],
      "payable": false,
      "stateMutability": "view",
      "type": "function"
    },
    {
      "constant": true,
      "inputs": [],
      "name": "goalReached",
      "outputs": [
        {
          "name": "",
          "type": "bool"
        }
      ],
      "payable": false,
      "stateMutability": "view",
      "type": "function"
    },
    {
      "constant": false,
      "inputs": [],
      "name": "pause",
      "outputs": [],
      "payable": false,
      "stateMutability": "nonpayable",
      "type": "function"
    },
    {
      "constant": true,
      "inputs": [],
      "name": "bountySupply",
      "outputs": [
        {
          "name": "",
          "type": "uint256"
        }
      ],
      "payable": false,
      "stateMutability": "view",
      "type": "function"
    },
    {
      "constant": false,
      "inputs": [
        {
          "name": "beneficiary",
          "type": "address"
        }
      ],
      "name": "grantAdvisorToken",
      "outputs": [],
      "payable": false,
      "stateMutability": "nonpayable",
      "type": "function"
    },
    {
      "constant": true,
      "inputs": [],
      "name": "companyVestingTimeLock",
      "outputs": [
        {
          "name": "",
          "type": "uint256"
        }
      ],
      "payable": false,
      "stateMutability": "view",
      "type": "function"
    },
    {
      "constant": true,
      "inputs": [],
      "name": "ICOEndTime",
      "outputs": [
        {
          "name": "",
          "type": "uint256"
        }
      ],
      "payable": false,
      "stateMutability": "view",
      "type": "function"
    },
    {
      "constant": true,
      "inputs": [],
      "name": "advisorTimeLock",
      "outputs": [
        {
          "name": "",
          "type": "uint256"
        }
      ],
      "payable": false,
      "stateMutability": "view",
      "type": "function"
    },
    {
      "constant": false,
      "inputs": [],
      "name": "claimRefund",
      "outputs": [],
      "payable": false,
      "stateMutability": "nonpayable",
      "type": "function"
    },
    {
      "constant": false,
      "inputs": [
        {
          "name": "recipients",
          "type": "address[]"
        },
        {
          "name": "values",
          "type": "uint256[]"
        }
      ],
      "name": "bountyDrop",
      "outputs": [],
      "payable": false,
      "stateMutability": "nonpayable",
      "type": "function"
    },
    {
      "constant": true,
      "inputs": [],
      "name": "tier_gold_slots",
      "outputs": [
        {
          "name": "",
          "type": "uint256"
        }
      ],
      "payable": false,
      "stateMutability": "view",
      "type": "function"
    },
    {
      "constant": true,
      "inputs": [],
      "name": "ICOstartTime",
      "outputs": [
        {
          "name": "",
          "type": "uint256"
        }
      ],
      "payable": false,
      "stateMutability": "view",
      "type": "function"
    },
    {
      "constant": false,
      "inputs": [
        {
          "name": "recipients",
          "type": "address[]"
        },
        {
          "name": "values",
          "type": "uint256[]"
        }
      ],
      "name": "transferRewardsFunds",
      "outputs": [],
      "payable": false,
      "stateMutability": "nonpayable",
      "type": "function"
    },
    {
      "constant": false,
      "inputs": [
        {
          "name": "beneficiary",
          "type": "address"
        }
      ],
      "name": "buyTokens",
      "outputs": [],
      "payable": true,
      "stateMutability": "payable",
      "type": "function"
    },
    {
      "constant": true,
      "inputs": [],
      "name": "hasEnded",
      "outputs": [
        {
          "name": "",
          "type": "bool"
        }
      ],
      "payable": false,
      "stateMutability": "view",
      "type": "function"
    },
    {
      "constant": false,
      "inputs": [
        {
          "name": "newOwner",
          "type": "address"
        }
      ],
      "name": "transferOwnership",
      "outputs": [],
      "payable": false,
      "stateMutability": "nonpayable",
      "type": "function"
    },
    {
      "constant": false,
      "inputs": [
        {
          "name": "teamfounderAddress",
          "type": "address"
        }
      ],
      "name": "grantTeamFounderToken",
      "outputs": [],
      "payable": false,
      "stateMutability": "nonpayable",
      "type": "function"
    },
    {
      "constant": false,
      "inputs": [],
      "name": "burnToken",
      "outputs": [
        {
          "name": "",
          "type": "bool"
        }
      ],
      "payable": false,
      "stateMutability": "nonpayable",
      "type": "function"
    },
    {
      "constant": true,
      "inputs": [],
      "name": "tier_copper_slots",
      "outputs": [
        {
          "name": "",
          "type": "uint256"
        }
      ],
      "payable": false,
      "stateMutability": "view",
      "type": "function"
    },
    {
      "inputs": [
        {
          "name": "_startTime",
          "type": "uint256"
        },
        {
          "name": "_endTime",
          "type": "uint256"
        },
        {
          "name": "_rate",
          "type": "uint256"
        },
        {
          "name": "_cap",
          "type": "uint256"
        },
        {
          "name": "_goal",
          "type": "uint256"
        },
        {
          "name": "_wallet",
          "type": "address"
        }
      ],
      "payable": false,
      "stateMutability": "nonpayable",
      "type": "constructor"
    },
    {
      "payable": true,
      "stateMutability": "payable",
      "type": "fallback"
    },
    {
      "anonymous": false,
      "inputs": [],
      "name": "Finalized",
      "type": "event"
    },
    {
      "anonymous": false,
      "inputs": [
        {
          "indexed": true,
          "name": "purchaser",
          "type": "address"
        },
        {
          "indexed": true,
          "name": "beneficiary",
          "type": "address"
        },
        {
          "indexed": false,
          "name": "value",
          "type": "uint256"
        },
        {
          "indexed": false,
          "name": "amount",
          "type": "uint256"
        }
      ],
      "name": "TokenPurchase",
      "type": "event"
    },
    {
      "anonymous": false,
      "inputs": [],
      "name": "Pause",
      "type": "event"
    },
    {
      "anonymous": false,
      "inputs": [],
      "name": "Unpause",
      "type": "event"
    },
    {
      "anonymous": false,
      "inputs": [
        {
          "indexed": true,
          "name": "previousOwner",
          "type": "address"
        },
        {
          "indexed": true,
          "name": "newOwner",
          "type": "address"
        }
      ],
      "name": "OwnershipTransferred",
      "type": "event"
    }
  ],
  "bytecode": "0x608060405260008060146101000a81548160ff0219169083151502179055506200004a633b9aca00670de0b6b3a7640000620005d76401000000000262002e2c176401000000009004565b6007556200007963057f8267670de0b6b3a7640000620005d76401000000000262002e2c176401000000009004565b600855620000a86317d78400670de0b6b3a7640000620005d76401000000000262002e2c176401000000009004565b600955620000d7630ee6b280670de0b6b3a7640000620005d76401000000000262002e2c176401000000009004565b600a5562000106630ee6b280670de0b6b3a7640000620005d76401000000000262002e2c176401000000009004565b600b55620001356301c9c380670de0b6b3a7640000620005d76401000000000262002e2c176401000000009004565b600c556200016362989680670de0b6b3a7640000620005d76401000000000262002e2c176401000000009004565b600d55620001926303938700670de0b6b3a7640000620005d76401000000000262002e2c176401000000009004565b600e55620001c163021cff0e670de0b6b3a7640000620005d76401000000000262002e2c176401000000009004565b600f556000601355600060145560006015556000601755600060185560006019556000601a556000601c60006101000a81548160ff0219169083151502179055503480156200020f57600080fd5b5060405160c08062005b73833981018060405281019080805190602001909291908051906020019092919080519060200190929190805190602001909291908051906020019092919080519060200190929190505050818387878785336000806101000a81548173ffffffffffffffffffffffffffffffffffffffff021916908373ffffffffffffffffffffffffffffffffffffffff160217905550428410151515620002bb57600080fd5b838310151515620002cb57600080fd5b600082111515620002db57600080fd5b60008173ffffffffffffffffffffffffffffffffffffffff16141515156200030257600080fd5b6200031b6200060d640100000000026401000000009004565b600160006101000a81548173ffffffffffffffffffffffffffffffffffffffff021916908373ffffffffffffffffffffffffffffffffffffffff16021790555083600581905550826006819055508160038190555080600260006101000a81548173ffffffffffffffffffffffffffffffffffffffff021916908373ffffffffffffffffffffffffffffffffffffffff160217905550620003d76006546301da9c006200063c6401000000000262002bc2176401000000009004565b601081905550620004036006546301da9c006200063c6401000000000262002bc2176401000000009004565b6011819055506200042e60065462ed4e006200063c6401000000000262002bc2176401000000009004565b6012819055506000601660006101000a81548160ff0219169083151502179055506000601660016101000a81548160ff0219169083151502179055506000601660026101000a81548160ff0219169083151502179055506000601660036101000a81548160ff0219169083151502179055506000601660046101000a81548160ff0219169083151502179055506000601660056101000a81548160ff02191690831515021790555050505050600081111515620004ea57600080fd5b80601b81905550506000811115156200050257600080fd5b600260009054906101000a900473ffffffffffffffffffffffffffffffffffffffff166200052f6200065b565b808273ffffffffffffffffffffffffffffffffffffffff1673ffffffffffffffffffffffffffffffffffffffff168152602001915050604051809103906000f08015801562000582573d6000803e3d6000fd5b50601e60006101000a81548173ffffffffffffffffffffffffffffffffffffffff021916908373ffffffffffffffffffffffffffffffffffffffff16021790555080601d81905550505050505050506200067d565b60008082840290506000841480620005fa5750828482811515620005f757fe5b04145b15156200060357fe5b8091505092915050565b6000620006196200066c565b604051809103906000f08015801562000636573d6000803e3d6000fd5b50905090565b60008082840190508381101515156200065157fe5b8091505092915050565b604051610a20806200396b83390190565b6040516117e8806200438b83390190565b6132de806200068d6000396000f300608060405260043610610225576000357c0100000000000000000000000000000000000000000000000000000000900463ffffffff1680630513bce6146102305780630bf318a31461025f5780630c92b17b146102765780630df0bf93146102a557806310fe9ae8146102d457806311b0f5361461032b57806312b11fc114610356578063146705b41461038557806318160ddd146103b0578063256990fc146103db5780632bfe07411461040a5780632c4e722e1461044d57806335a8a71a1461047857806337237752146104a35780633f4ba83a146104ce5780634415b1ee146104e55780634603ae381461051057806349141362146105b95780634e8127f6146105e85780634eb75ffe1461061357806356d73ee3146106bc5780635c975abb146106e75780635e84d7231461071657806365cacaa41461074157806372c548871461079857806372eb1afb146107c7578063798bede1146107f25780637d3d65221461081d5780638456cb591461084c57806386852fd7146108635780639389f1fc1461088e578063963d6b98146108d1578063a242f049146108fc578063b0d1a26c14610927578063b5545a3c14610952578063b749b22514610969578063b92a023814610a12578063c1da392314610a3d578063c9cc568d14610a68578063ec8ac4d814610b11578063ecb70fb714610b47578063f2fde38b14610b76578063f3f8b9ff14610bb9578063faa0a26414610bfc578063faf94a9b14610c2b575b61022e33610c56565b005b34801561023c57600080fd5b50610245610eae565b604051808215151515815260200191505060405180910390f35b34801561026b57600080fd5b50610274610ec1565b005b34801561028257600080fd5b5061028b610f9c565b604051808215151515815260200191505060405180910390f35b3480156102b157600080fd5b506102ba610faf565b604051808215151515815260200191505060405180910390f35b3480156102e057600080fd5b506102e9610fc2565b604051808273ffffffffffffffffffffffffffffffffffffffff1673ffffffffffffffffffffffffffffffffffffffff16815260200191505060405180910390f35b34801561033757600080fd5b50610340611047565b6040518082815260200191505060405180910390f35b34801561036257600080fd5b5061036b61104d565b604051808215151515815260200191505060405180910390f35b34801561039157600080fd5b5061039a611060565b6040518082815260200191505060405180910390f35b3480156103bc57600080fd5b506103c5611066565b6040518082815260200191505060405180910390f35b3480156103e757600080fd5b506103f061106c565b604051808215151515815260200191505060405180910390f35b34801561041657600080fd5b5061044b600480360381019080803573ffffffffffffffffffffffffffffffffffffffff16906020019092919050505061107f565b005b34801561045957600080fd5b50610462611230565b6040518082815260200191505060405180910390f35b34801561048457600080fd5b5061048d611236565b6040518082815260200191505060405180910390f35b3480156104af57600080fd5b506104b861123c565b6040518082815260200191505060405180910390f35b3480156104da57600080fd5b506104e3611242565b005b3480156104f157600080fd5b506104fa611300565b6040518082815260200191505060405180910390f35b34801561051c57600080fd5b506105b76004803603810190808035906020019082018035906020019080806020026020016040519081016040528093929190818152602001838360200280828437820191505050505050919291929080359060200190820180359060200190808060200260200160405190810160405280939291908181526020018383602002808284378201915050505050509192919290505050611306565b005b3480156105c557600080fd5b506105ce611564565b604051808215151515815260200191505060405180910390f35b3480156105f457600080fd5b506105fd6117e8565b6040518082815260200191505060405180910390f35b34801561061f57600080fd5b506106ba60048036038101908080359060200190820180359060200190808060200260200160405190810160405280939291908181526020018383602002808284378201915050505050509192919290803590602001908201803590602001908080602002602001604051908101604052809392919081815260200183836020028082843782019150505050505091929192905050506117ee565b005b3480156106c857600080fd5b506106d1611a4c565b6040518082815260200191505060405180910390f35b3480156106f357600080fd5b506106fc611a52565b604051808215151515815260200191505060405180910390f35b34801561072257600080fd5b5061072b611a65565b6040518082815260200191505060405180910390f35b34801561074d57600080fd5b50610756611a6b565b604051808273ffffffffffffffffffffffffffffffffffffffff1673ffffffffffffffffffffffffffffffffffffffff16815260200191505060405180910390f35b3480156107a457600080fd5b506107ad611af0565b604051808215151515815260200191505060405180910390f35b3480156107d357600080fd5b506107dc611b03565b6040518082815260200191505060405180910390f35b3480156107fe57600080fd5b50610807611b09565b6040518082815260200191505060405180910390f35b34801561082957600080fd5b50610832611b0f565b604051808215151515815260200191505060405180910390f35b34801561085857600080fd5b50610861611b1e565b005b34801561086f57600080fd5b50610878611bde565b6040518082815260200191505060405180910390f35b34801561089a57600080fd5b506108cf600480360381019080803573ffffffffffffffffffffffffffffffffffffffff169060200190929190505050611be4565b005b3480156108dd57600080fd5b506108e6611d95565b6040518082815260200191505060405180910390f35b34801561090857600080fd5b50610911611d9b565b6040518082815260200191505060405180910390f35b34801561093357600080fd5b5061093c611da1565b6040518082815260200191505060405180910390f35b34801561095e57600080fd5b50610967611da7565b005b34801561097557600080fd5b50610a106004803603810190808035906020019082018035906020019080806020026020016040519081016040528093929190818152602001838360200280828437820191505050505050919291929080359060200190820180359060200190808060200260200160405190810160405280939291908181526020018383602002808284378201915050505050509192919290505050611ead565b005b348015610a1e57600080fd5b50610a276120ef565b6040518082815260200191505060405180910390f35b348015610a4957600080fd5b50610a526120f5565b6040518082815260200191505060405180910390f35b348015610a7457600080fd5b50610b0f60048036038101908080359060200190820180359060200190808060200260200160405190810160405280939291908181526020018383602002808284378201915050505050509192919290803590602001908201803590602001908080602002602001604051908101604052809392919081815260200183836020028082843782019150505050505091929192905050506120fb565b005b610b45600480360381019080803573ffffffffffffffffffffffffffffffffffffffff169060200190929190505050610c56565b005b348015610b5357600080fd5b50610b5c61233d565b604051808215151515815260200191505060405180910390f35b348015610b8257600080fd5b50610bb7600480360381019080803573ffffffffffffffffffffffffffffffffffffffff169060200190929190505050612360565b005b348015610bc557600080fd5b50610bfa600480360381019080803573ffffffffffffffffffffffffffffffffffffffff1690602001909291905050506124b5565b005b348015610c0857600080fd5b50610c11612666565b604051808215151515815260200191505060405180910390f35b348015610c3757600080fd5b50610c40612807565b6040518082815260200191505060405180910390f35b600080600060149054906101000a900460ff16151515610c7557600080fd5b60008373ffffffffffffffffffffffffffffffffffffffff1614151515610c9b57600080fd5b610ca361280d565b1515610cae57600080fd5b3491506000905067016345785d8a00008210158015610cf5575060026017541080610cdb57506005601854105b80610ce7575060198054105b80610cf457506064601a54105b5b15610d0b57610d048282612843565b9050610d18565b610d158282612b13565b90505b610d2d82600454612bc290919063ffffffff16565b600481905550600160009054906101000a900473ffffffffffffffffffffffffffffffffffffffff1673ffffffffffffffffffffffffffffffffffffffff166340c10f1984836040518363ffffffff167c0100000000000000000000000000000000000000000000000000000000028152600401808373ffffffffffffffffffffffffffffffffffffffff1673ffffffffffffffffffffffffffffffffffffffff16815260200182815260200192505050602060405180830381600087803b158015610df857600080fd5b505af1158015610e0c573d6000803e3d6000fd5b505050506040513d6020811015610e2257600080fd5b8101908080519060200190929190505050508273ffffffffffffffffffffffffffffffffffffffff163373ffffffffffffffffffffffffffffffffffffffff167f623b3804fa71d67900d064613da8f94b9617215ee90799290593e1745087ad188484604051808381526020018281526020019250505060405180910390a3610ea9612be0565b505050565b601660039054906101000a900460ff1681565b6000809054906101000a900473ffffffffffffffffffffffffffffffffffffffff1673ffffffffffffffffffffffffffffffffffffffff163373ffffffffffffffffffffffffffffffffffffffff16141515610f1c57600080fd5b601c60009054906101000a900460ff16151515610f3857600080fd5b610f4061233d565b1515610f4b57600080fd5b610f53612cb8565b7f6823b073d48d6e3a7d385eeb601452d680e74bb46afe3255a7d778f3a9b1768160405160405180910390a16001601c60006101000a81548160ff021916908315150217905550565b601660009054906101000a900460ff1681565b601660049054906101000a900460ff1681565b60008060009054906101000a900473ffffffffffffffffffffffffffffffffffffffff1673ffffffffffffffffffffffffffffffffffffffff163373ffffffffffffffffffffffffffffffffffffffff1614151561101f57600080fd5b600160009054906101000a900473ffffffffffffffffffffffffffffffffffffffff16905090565b60105481565b601660029054906101000a900460ff1681565b600e5481565b60075481565b601660019054906101000a900460ff1681565b6000809054906101000a900473ffffffffffffffffffffffffffffffffffffffff1673ffffffffffffffffffffffffffffffffffffffff163373ffffffffffffffffffffffffffffffffffffffff161415156110da57600080fd5b60246015541080156110ed575042601154105b15156110f857600080fd5b61110760115462278d00612bc2565b601181905550600160009054906101000a900473ffffffffffffffffffffffffffffffffffffffff1673ffffffffffffffffffffffffffffffffffffffff166340c10f1982611159600b546024612e11565b6040518363ffffffff167c0100000000000000000000000000000000000000000000000000000000028152600401808373ffffffffffffffffffffffffffffffffffffffff1673ffffffffffffffffffffffffffffffffffffffff16815260200182815260200192505050602060405180830381600087803b1580156111de57600080fd5b505af11580156111f2573d6000803e3d6000fd5b505050506040513d602081101561120857600080fd5b8101908080519060200190929190505050506112276015546001612bc2565b60158190555050565b60035481565b60195481565b600b5481565b6000809054906101000a900473ffffffffffffffffffffffffffffffffffffffff1673ffffffffffffffffffffffffffffffffffffffff163373ffffffffffffffffffffffffffffffffffffffff1614151561129d57600080fd5b600060149054906101000a900460ff1615156112b857600080fd5b60008060146101000a81548160ff0219169083151502179055507f7805862f689e2f13df9f062ff482ad3ad112aca9e0847911ed832e158c525b3360405160405180910390a1565b600a5481565b60008060009054906101000a900473ffffffffffffffffffffffffffffffffffffffff1673ffffffffffffffffffffffffffffffffffffffff163373ffffffffffffffffffffffffffffffffffffffff1614151561136357600080fd5b601660009054906101000a900460ff1615151561137f57600080fd5b600090505b825181101561155f576113b6828281518110151561139e57fe5b90602001906020020151670de0b6b3a7640000612e2c565b82828151811015156113c457fe5b906020019060200201818152505081818151811015156113e057fe5b90602001906020020151600954101515156113fa57600080fd5b61141d600954838381518110151561140e57fe5b90602001906020020151612e5f565b600981905550600160009054906101000a900473ffffffffffffffffffffffffffffffffffffffff1673ffffffffffffffffffffffffffffffffffffffff166340c10f19848381518110151561146f57fe5b90602001906020020151848481518110151561148757fe5b906020019060200201516040518363ffffffff167c0100000000000000000000000000000000000000000000000000000000028152600401808373ffffffffffffffffffffffffffffffffffffffff1673ffffffffffffffffffffffffffffffffffffffff16815260200182815260200192505050602060405180830381600087803b15801561151657600080fd5b505af115801561152a573d6000803e3d6000fd5b505050506040513d602081101561154057600080fd5b8101908080519060200190929190505050508080600101915050611384565b505050565b60008060009054906101000a900473ffffffffffffffffffffffffffffffffffffffff1673ffffffffffffffffffffffffffffffffffffffff163373ffffffffffffffffffffffffffffffffffffffff161415156115c157600080fd5b601660019054906101000a900460ff161515156115dd57600080fd5b6115e561233d565b15156115f057600080fd5b600160009054906101000a900473ffffffffffffffffffffffffffffffffffffffff1673ffffffffffffffffffffffffffffffffffffffff16636d1b229d600c546040518263ffffffff167c010000000000000000000000000000000000000000000000000000000002815260040180828152602001915050602060405180830381600087803b15801561168357600080fd5b505af1158015611697573d6000803e3d6000fd5b505050506040513d60208110156116ad57600080fd5b810190808051906020019092919050505050600160009054906101000a900473ffffffffffffffffffffffffffffffffffffffff1673ffffffffffffffffffffffffffffffffffffffff16636d1b229d600d546040518263ffffffff167c010000000000000000000000000000000000000000000000000000000002815260040180828152602001915050602060405180830381600087803b15801561175257600080fd5b505af1158015611766573d6000803e3d6000fd5b505050506040513d602081101561177c57600080fd5b81019080805190602001909291905050505061179c600754600c54612e5f565b6007819055506117b0600754600d54612e5f565b6007819055506000600c819055506000600d819055506001601660016101000a81548160ff0219169083151502179055506001905090565b60085481565b60008060009054906101000a900473ffffffffffffffffffffffffffffffffffffffff1673ffffffffffffffffffffffffffffffffffffffff163373ffffffffffffffffffffffffffffffffffffffff1614151561184b57600080fd5b601660009054906101000a900460ff1615151561186757600080fd5b600090505b8251811015611a475761189e828281518110151561188657fe5b90602001906020020151670de0b6b3a7640000612e2c565b82828151811015156118ac57fe5b906020019060200201818152505081818151811015156118c857fe5b90602001906020020151600f54101515156118e257600080fd5b611905600f5483838151811015156118f657fe5b90602001906020020151612e5f565b600f81905550600160009054906101000a900473ffffffffffffffffffffffffffffffffffffffff1673ffffffffffffffffffffffffffffffffffffffff166340c10f19848381518110151561195757fe5b90602001906020020151848481518110151561196f57fe5b906020019060200201516040518363ffffffff167c0100000000000000000000000000000000000000000000000000000000028152600401808373ffffffffffffffffffffffffffffffffffffffff1673ffffffffffffffffffffffffffffffffffffffff16815260200182815260200192505050602060405180830381600087803b1580156119fe57600080fd5b505af1158015611a12573d6000803e3d6000fd5b505050506040513d6020811015611a2857600080fd5b810190808051906020019092919050505050808060010191505061186c565b505050565b60185481565b600060149054906101000a900460ff1681565b60095481565b60008060009054906101000a900473ffffffffffffffffffffffffffffffffffffffff1673ffffffffffffffffffffffffffffffffffffffff163373ffffffffffffffffffffffffffffffffffffffff16141515611ac857600080fd5b601e60009054906101000a900473ffffffffffffffffffffffffffffffffffffffff16905090565b601660059054906101000a900460ff1681565b600f5481565b600c5481565b6000601d546004541015905090565b6000809054906101000a900473ffffffffffffffffffffffffffffffffffffffff1673ffffffffffffffffffffffffffffffffffffffff163373ffffffffffffffffffffffffffffffffffffffff16141515611b7957600080fd5b600060149054906101000a900460ff16151515611b9557600080fd5b6001600060146101000a81548160ff0219169083151502179055507f6985a02210a168e66602d3235cb6db0e70f92b3ba4d376a33c0f3d9434bff62560405160405180910390a1565b600d5481565b6000809054906101000a900473ffffffffffffffffffffffffffffffffffffffff1673ffffffffffffffffffffffffffffffffffffffff163373ffffffffffffffffffffffffffffffffffffffff16141515611c3f57600080fd5b6006601454108015611c52575042601254105b1515611c5d57600080fd5b611c6c60125462278d00612bc2565b601281905550600160009054906101000a900473ffffffffffffffffffffffffffffffffffffffff1673ffffffffffffffffffffffffffffffffffffffff166340c10f1982611cbe600c546006612e11565b6040518363ffffffff167c0100000000000000000000000000000000000000000000000000000000028152600401808373ffffffffffffffffffffffffffffffffffffffff1673ffffffffffffffffffffffffffffffffffffffff16815260200182815260200192505050602060405180830381600087803b158015611d4357600080fd5b505af1158015611d57573d6000803e3d6000fd5b505050506040513d6020811015611d6d57600080fd5b810190808051906020019092919050505050611d8c6014546001612bc2565b60148190555050565b60115481565b60065481565b60125481565b601c60009054906101000a900460ff161515611dc257600080fd5b611dca611b0f565b151515611dd657600080fd5b601e60009054906101000a900473ffffffffffffffffffffffffffffffffffffffff1673ffffffffffffffffffffffffffffffffffffffff1663fa89401a336040518263ffffffff167c0100000000000000000000000000000000000000000000000000000000028152600401808273ffffffffffffffffffffffffffffffffffffffff1673ffffffffffffffffffffffffffffffffffffffff168152602001915050600060405180830381600087803b158015611e9357600080fd5b505af1158015611ea7573d6000803e3d6000fd5b50505050565b60008060009054906101000a900473ffffffffffffffffffffffffffffffffffffffff1673ffffffffffffffffffffffffffffffffffffffff163373ffffffffffffffffffffffffffffffffffffffff16141515611f0a57600080fd5b600090505b82518110156120ea57611f418282815181101515611f2957fe5b90602001906020020151670de0b6b3a7640000612e2c565b8282815181101515611f4f57fe5b90602001906020020181815250508181815181101515611f6b57fe5b90602001906020020151600d5410151515611f8557600080fd5b611fa8600d548383815181101515611f9957fe5b90602001906020020151612e5f565b600d81905550600160009054906101000a900473ffffffffffffffffffffffffffffffffffffffff1673ffffffffffffffffffffffffffffffffffffffff166340c10f198483815181101515611ffa57fe5b90602001906020020151848481518110151561201257fe5b906020019060200201516040518363ffffffff167c0100000000000000000000000000000000000000000000000000000000028152600401808373ffffffffffffffffffffffffffffffffffffffff1673ffffffffffffffffffffffffffffffffffffffff16815260200182815260200192505050602060405180830381600087803b1580156120a157600080fd5b505af11580156120b5573d6000803e3d6000fd5b505050506040513d60208110156120cb57600080fd5b8101908080519060200190929190505050508080600101915050611f0f565b505050565b60175481565b60055481565b60008060009054906101000a900473ffffffffffffffffffffffffffffffffffffffff1673ffffffffffffffffffffffffffffffffffffffff163373ffffffffffffffffffffffffffffffffffffffff1614151561215857600080fd5b600090505b82518110156123385761218f828281518110151561217757fe5b90602001906020020151670de0b6b3a7640000612e2c565b828281518110151561219d57fe5b906020019060200201818152505081818151811015156121b957fe5b90602001906020020151600e54101515156121d357600080fd5b6121f6600e5483838151811015156121e757fe5b90602001906020020151612e5f565b600e81905550600160009054906101000a900473ffffffffffffffffffffffffffffffffffffffff1673ffffffffffffffffffffffffffffffffffffffff166340c10f19848381518110151561224857fe5b90602001906020020151848481518110151561226057fe5b906020019060200201516040518363ffffffff167c0100000000000000000000000000000000000000000000000000000000028152600401808373ffffffffffffffffffffffffffffffffffffffff1673ffffffffffffffffffffffffffffffffffffffff16815260200182815260200192505050602060405180830381600087803b1580156122ef57600080fd5b505af1158015612303573d6000803e3d6000fd5b505050506040513d602081101561231957600080fd5b810190808051906020019092919050505050808060010191505061215d565b505050565b600080601b5460045410159050612352612e78565b8061235a5750805b91505090565b6000809054906101000a900473ffffffffffffffffffffffffffffffffffffffff1673ffffffffffffffffffffffffffffffffffffffff163373ffffffffffffffffffffffffffffffffffffffff161415156123bb57600080fd5b600073ffffffffffffffffffffffffffffffffffffffff168173ffffffffffffffffffffffffffffffffffffffff16141515156123f757600080fd5b8073ffffffffffffffffffffffffffffffffffffffff166000809054906101000a900473ffffffffffffffffffffffffffffffffffffffff1673ffffffffffffffffffffffffffffffffffffffff167f8be0079c531659141344cd1fd0a4f28419497f9722a3daafe3b4186f6b6457e060405160405180910390a3806000806101000a81548173ffffffffffffffffffffffffffffffffffffffff021916908373ffffffffffffffffffffffffffffffffffffffff16021790555050565b6000809054906101000a900473ffffffffffffffffffffffffffffffffffffffff1673ffffffffffffffffffffffffffffffffffffffff163373ffffffffffffffffffffffffffffffffffffffff1614151561251057600080fd5b6024601354108015612523575042601054105b151561252e57600080fd5b61253d60105462278d00612bc2565b601081905550600160009054906101000a900473ffffffffffffffffffffffffffffffffffffffff1673ffffffffffffffffffffffffffffffffffffffff166340c10f198261258f600a546024612e11565b6040518363ffffffff167c0100000000000000000000000000000000000000000000000000000000028152600401808373ffffffffffffffffffffffffffffffffffffffff1673ffffffffffffffffffffffffffffffffffffffff16815260200182815260200192505050602060405180830381600087803b15801561261457600080fd5b505af1158015612628573d6000803e3d6000fd5b505050506040513d602081101561263e57600080fd5b81019080805190602001909291905050505061265d6013546001612bc2565b60138190555050565b60008060009054906101000a900473ffffffffffffffffffffffffffffffffffffffff1673ffffffffffffffffffffffffffffffffffffffff163373ffffffffffffffffffffffffffffffffffffffff161415156126c357600080fd5b6126cb61233d565b15156126d657600080fd5b601660009054906101000a900460ff161515156126f257600080fd5b600160009054906101000a900473ffffffffffffffffffffffffffffffffffffffff1673ffffffffffffffffffffffffffffffffffffffff16636d1b229d6008546040518263ffffffff167c010000000000000000000000000000000000000000000000000000000002815260040180828152602001915050602060405180830381600087803b15801561278557600080fd5b505af1158015612799573d6000803e3d6000fd5b505050506040513d60208110156127af57600080fd5b8101908080519060200190929190505050506127cf600754600854612e5f565b600781905550600060098190555060006008819055506001601660006101000a81548160ff0219169083151502179055506001905090565b601a5481565b600080601b5461282834600454612bc290919063ffffffff16565b11159050612834612e84565b801561283d5750805b91505090565b60006128578367016345785d8a0000612e11565b6128646002601754612e5f565b1015801561288f575060006128818467016345785d8a0000612e11565b67016345785d8a0000028403145b80156128ae575060001515601660029054906101000a900460ff161515145b156128c4576128bd8383612eb7565b9150612b0a565b6128d68367016345785d8a0000612e11565b6128e36005601854612e5f565b1015801561290e575060006129008467016345785d8a0000612e11565b67016345785d8a0000028403145b801561292d575060001515601660039054906101000a900460ff161515145b801561294c575060011515601660029054906101000a900460ff161515145b156129625761295b8383612fb6565b9150612b09565b6129748367016345785d8a0000612e11565b61298060198054612e5f565b101580156129ab5750600061299d8467016345785d8a0000612e11565b67016345785d8a0000028403145b80156129ca575060001515601660049054906101000a900460ff161515145b80156129e9575060011515601660039054906101000a900460ff161515145b8015612a08575060011515601660029054906101000a900460ff161515145b15612a1e57612a1783836130b5565b9150612b08565b612a308367016345785d8a0000612e11565b612a3d6064601a54612e5f565b10158015612a6857506000612a5a8467016345785d8a0000612e11565b67016345785d8a0000028403145b8015612a87575060001515601660059054906101000a900460ff161515145b8015612aa6575060011515601660049054906101000a900460ff161515145b8015612ac5575060011515601660039054906101000a900460ff161515145b8015612ae4575060011515601660029054906101000a900460ff161515145b15612afa57612af383836131b1565b9150612b07565b612b048383612b13565b91505b5b5b5b81905092915050565b600067016345785d8a00008310158015612b365750683635c9adc5dea000008311155b1515612b4157600080fd5b6000600854111515612b5257600080fd5b612b7082612b6b60035486612e2c90919063ffffffff16565b612bc2565b91508160085410151515612b8357600080fd5b612b9882600854612e5f90919063ffffffff16565b600881905550612bb382600954612e5f90919063ffffffff16565b60098190555081905092915050565b6000808284019050838110151515612bd657fe5b8091505092915050565b601e60009054906101000a900473ffffffffffffffffffffffffffffffffffffffff1673ffffffffffffffffffffffffffffffffffffffff1663f340fa0134336040518363ffffffff167c0100000000000000000000000000000000000000000000000000000000028152600401808273ffffffffffffffffffffffffffffffffffffffff1673ffffffffffffffffffffffffffffffffffffffff1681526020019150506000604051808303818588803b158015612c9d57600080fd5b505af1158015612cb1573d6000803e3d6000fd5b5050505050565b612cc0611b0f565b15612d6857601e60009054906101000a900473ffffffffffffffffffffffffffffffffffffffff1673ffffffffffffffffffffffffffffffffffffffff166343d726d66040518163ffffffff167c0100000000000000000000000000000000000000000000000000000000028152600401600060405180830381600087803b158015612d4b57600080fd5b505af1158015612d5f573d6000803e3d6000fd5b50505050612e07565b601e60009054906101000a900473ffffffffffffffffffffffffffffffffffffffff1673ffffffffffffffffffffffffffffffffffffffff16638c52dc416040518163ffffffff167c0100000000000000000000000000000000000000000000000000000000028152600401600060405180830381600087803b158015612dee57600080fd5b505af1158015612e02573d6000803e3d6000fd5b505050505b612e0f6132b0565b565b6000808284811515612e1f57fe5b0490508091505092915050565b60008082840290506000841480612e4d5750828482811515612e4a57fe5b04145b1515612e5557fe5b8091505092915050565b6000828211151515612e6d57fe5b818303905092915050565b60006006544211905090565b60008060006005544210158015612e9d57506006544211155b915060003414159050818015612eb05750805b9250505090565b6000801515601660029054906101000a900460ff161515141515612eda57600080fd5b6002601754101515612eeb57600080fd5b612efd8367016345785d8a0000612e11565b612f0a6002601754612e5f565b10158015612f3557506000612f278467016345785d8a0000612e11565b67016345785d8a0000028403145b15612f7e57612f5882612f5360035486612e2c90919063ffffffff16565b612bc2565b9150612f77601754612f728567016345785d8a0000612e11565b612bc2565b6017819055505b60026017541415612fac576001601660026101000a81548160ff021916908315150217905550819050612fb0565b8190505b92915050565b6000801515601660039054906101000a900460ff161515141515612fd957600080fd5b6005601854101515612fea57600080fd5b612ffc8367016345785d8a0000612e11565b6130096005601854612e5f565b10158015613034575060006130268467016345785d8a0000612e11565b67016345785d8a0000028403145b1561307d576130578261305260035486612e2c90919063ffffffff16565b612bc2565b91506130766018546130718567016345785d8a0000612e11565b612bc2565b6018819055505b600560185414156130ab576001601660036101000a81548160ff0219169083151502179055508190506130af565b8190505b92915050565b6000801515601660049054906101000a900460ff1615151415156130d857600080fd5b601980541015156130e857600080fd5b6130fa8367016345785d8a0000612e11565b61310660198054612e5f565b10158015613131575060006131238467016345785d8a0000612e11565b67016345785d8a0000028403145b1561317a576131548261314f60035486612e2c90919063ffffffff16565b612bc2565b915061317360195461316e8567016345785d8a0000612e11565b612bc2565b6019819055505b6019805414156131a7576001601660046101000a81548160ff0219169083151502179055508190506131ab565b8190505b92915050565b6000801515601660059054906101000a900460ff1615151415156131d457600080fd5b6064601a541015156131e557600080fd5b6131f78367016345785d8a0000612e11565b6132046064601a54612e5f565b1015801561322f575060006132218467016345785d8a0000612e11565b67016345785d8a0000028403145b15613278576132528261324d60035486612e2c90919063ffffffff16565b612bc2565b9150613271601a5461326c8567016345785d8a0000612e11565b612bc2565b601a819055505b6064601a5414156132a6576001601660056101000a81548160ff0219169083151502179055508190506132aa565b8190505b92915050565b5600a165627a7a72305820dd166960b21cd9dc00f327fc0de3058cbbebf9ec5898e966ad555d097d4a5ae40029608060405234801561001057600080fd5b50604051602080610a2083398101806040528101908080519060200190929190505050336000806101000a81548173ffffffffffffffffffffffffffffffffffffffff021916908373ffffffffffffffffffffffffffffffffffffffff16021790555060008173ffffffffffffffffffffffffffffffffffffffff161415151561009957600080fd5b80600260006101000a81548173ffffffffffffffffffffffffffffffffffffffff021916908373ffffffffffffffffffffffffffffffffffffffff1602179055506000600260146101000a81548160ff021916908360028111156100f957fe5b0217905550506109128061010e6000396000f30060806040526004361061008e576000357c0100000000000000000000000000000000000000000000000000000000900463ffffffff16806343d726d614610093578063521eb273146100aa5780638c52dc4114610101578063c19d93fb14610118578063cb13cddb14610151578063f2fde38b146101a8578063f340fa01146101eb578063fa89401a14610221575b600080fd5b34801561009f57600080fd5b506100a8610264565b005b3480156100b657600080fd5b506100bf6103c4565b604051808273ffffffffffffffffffffffffffffffffffffffff1673ffffffffffffffffffffffffffffffffffffffff16815260200191505060405180910390f35b34801561010d57600080fd5b506101166103ea565b005b34801561012457600080fd5b5061012d6104cb565b6040518082600281111561013d57fe5b60ff16815260200191505060405180910390f35b34801561015d57600080fd5b50610192600480360381019080803573ffffffffffffffffffffffffffffffffffffffff1690602001909291905050506104de565b6040518082815260200191505060405180910390f35b3480156101b457600080fd5b506101e9600480360381019080803573ffffffffffffffffffffffffffffffffffffffff1690602001909291905050506104f6565b005b61021f600480360381019080803573ffffffffffffffffffffffffffffffffffffffff16906020019092919050505061064b565b005b34801561022d57600080fd5b50610262600480360381019080803573ffffffffffffffffffffffffffffffffffffffff169060200190929190505050610772565b005b6000809054906101000a900473ffffffffffffffffffffffffffffffffffffffff1673ffffffffffffffffffffffffffffffffffffffff163373ffffffffffffffffffffffffffffffffffffffff161415156102bf57600080fd5b600060028111156102cc57fe5b600260149054906101000a900460ff1660028111156102e757fe5b1415156102f357600080fd5b60028060146101000a81548160ff0219169083600281111561031157fe5b02179055507f1cdde67b72a90f19919ac732a437ac2f7a10fc128d28c2a6e525d89ce5cd9d3a60405160405180910390a1600260009054906101000a900473ffffffffffffffffffffffffffffffffffffffff1673ffffffffffffffffffffffffffffffffffffffff166108fc3073ffffffffffffffffffffffffffffffffffffffff16319081150290604051600060405180830381858888f193505050501580156103c1573d6000803e3d6000fd5b50565b600260009054906101000a900473ffffffffffffffffffffffffffffffffffffffff1681565b6000809054906101000a900473ffffffffffffffffffffffffffffffffffffffff1673ffffffffffffffffffffffffffffffffffffffff163373ffffffffffffffffffffffffffffffffffffffff1614151561044557600080fd5b6000600281111561045257fe5b600260149054906101000a900460ff16600281111561046d57fe5b14151561047957600080fd5b6001600260146101000a81548160ff0219169083600281111561049857fe5b02179055507f599d8e5a83cffb867d051598c4d70e805d59802d8081c1c7d6dffc5b6aca2b8960405160405180910390a1565b600260149054906101000a900460ff1681565b60016020528060005260406000206000915090505481565b6000809054906101000a900473ffffffffffffffffffffffffffffffffffffffff1673ffffffffffffffffffffffffffffffffffffffff163373ffffffffffffffffffffffffffffffffffffffff1614151561055157600080fd5b600073ffffffffffffffffffffffffffffffffffffffff168173ffffffffffffffffffffffffffffffffffffffff161415151561058d57600080fd5b8073ffffffffffffffffffffffffffffffffffffffff166000809054906101000a900473ffffffffffffffffffffffffffffffffffffffff1673ffffffffffffffffffffffffffffffffffffffff167f8be0079c531659141344cd1fd0a4f28419497f9722a3daafe3b4186f6b6457e060405160405180910390a3806000806101000a81548173ffffffffffffffffffffffffffffffffffffffff021916908373ffffffffffffffffffffffffffffffffffffffff16021790555050565b6000809054906101000a900473ffffffffffffffffffffffffffffffffffffffff1673ffffffffffffffffffffffffffffffffffffffff163373ffffffffffffffffffffffffffffffffffffffff161415156106a657600080fd5b600060028111156106b357fe5b600260149054906101000a900460ff1660028111156106ce57fe5b1415156106da57600080fd5b61072c34600160008473ffffffffffffffffffffffffffffffffffffffff1673ffffffffffffffffffffffffffffffffffffffff168152602001908152602001600020546108c890919063ffffffff16565b600160008373ffffffffffffffffffffffffffffffffffffffff1673ffffffffffffffffffffffffffffffffffffffff1681526020019081526020016000208190555050565b60006001600281111561078157fe5b600260149054906101000a900460ff16600281111561079c57fe5b1415156107a857600080fd5b600160008373ffffffffffffffffffffffffffffffffffffffff1673ffffffffffffffffffffffffffffffffffffffff1681526020019081526020016000205490506000600160008473ffffffffffffffffffffffffffffffffffffffff1673ffffffffffffffffffffffffffffffffffffffff168152602001908152602001600020819055508173ffffffffffffffffffffffffffffffffffffffff166108fc829081150290604051600060405180830381858888f19350505050158015610875573d6000803e3d6000fd5b508173ffffffffffffffffffffffffffffffffffffffff167fd7dee2702d63ad89917b6a4da9981c90c4d24f8c2bdfd64c604ecae57d8d0651826040518082815260200191505060405180910390a25050565b60008082840190508381101515156108dc57fe5b80915050929150505600a165627a7a72305820afa992cc1f0f8427f92d6f5323b60627f41c126c747d66ddda7ae76036ef521f002960806040526000600360146101000a81548160ff021916908315150217905550610048633b9aca00670de0b6b3a7640000610091640100000000026116b6176401000000009004565b60045533600360006101000a81548173ffffffffffffffffffffffffffffffffffffffff021916908373ffffffffffffffffffffffffffffffffffffffff1602179055506100c4565b600080828402905060008414806100b257508284828115156100af57fe5b04145b15156100ba57fe5b8091505092915050565b611715806100d36000396000f3006080604052600436106100e6576000357c0100000000000000000000000000000000000000000000000000000000900463ffffffff16806305d2035b146100eb57806306fdde031461011a578063095ea7b3146101aa57806318160ddd1461020f57806323b872dd1461023a578063313ce567146102bf57806340c10f19146102f057806366188463146103555780636d1b229d146103ba57806370a08231146103ff5780637d64bcb41461045657806395d89b4114610485578063a9059cbb14610515578063d73dd6231461057a578063dd62ed3e146105df578063f2fde38b14610656575b600080fd5b3480156100f757600080fd5b50610100610699565b604051808215151515815260200191505060405180910390f35b34801561012657600080fd5b5061012f6106ac565b6040518080602001828103825283818151815260200191508051906020019080838360005b8381101561016f578082015181840152602081019050610154565b50505050905090810190601f16801561019c5780820380516001836020036101000a031916815260200191505b509250505060405180910390f35b3480156101b657600080fd5b506101f5600480360381019080803573ffffffffffffffffffffffffffffffffffffffff169060200190929190803590602001909291905050506106e5565b604051808215151515815260200191505060405180910390f35b34801561021b57600080fd5b506102246107d7565b6040518082815260200191505060405180910390f35b34801561024657600080fd5b506102a5600480360381019080803573ffffffffffffffffffffffffffffffffffffffff169060200190929190803573ffffffffffffffffffffffffffffffffffffffff169060200190929190803590602001909291905050506107dd565b604051808215151515815260200191505060405180910390f35b3480156102cb57600080fd5b506102d4610ac9565b604051808260ff1660ff16815260200191505060405180910390f35b3480156102fc57600080fd5b5061033b600480360381019080803573ffffffffffffffffffffffffffffffffffffffff16906020019092919080359060200190929190505050610ace565b604051808215151515815260200191505060405180910390f35b34801561036157600080fd5b506103a0600480360381019080803573ffffffffffffffffffffffffffffffffffffffff16906020019092919080359060200190929190505050610c9a565b604051808215151515815260200191505060405180910390f35b3480156103c657600080fd5b506103e560048036038101908080359060200190929190505050610f2b565b604051808215151515815260200191505060405180910390f35b34801561040b57600080fd5b50610440600480360381019080803573ffffffffffffffffffffffffffffffffffffffff169060200190929190505050610fa0565b6040518082815260200191505060405180910390f35b34801561046257600080fd5b5061046b610fe9565b604051808215151515815260200191505060405180910390f35b34801561049157600080fd5b5061049a611095565b6040518080602001828103825283818151815260200191508051906020019080838360005b838110156104da5780820151818401526020810190506104bf565b50505050905090810190601f1680156105075780820380516001836020036101000a031916815260200191505b509250505060405180910390f35b34801561052157600080fd5b50610560600480360381019080803573ffffffffffffffffffffffffffffffffffffffff169060200190929190803590602001909291905050506110ce565b604051808215151515815260200191505060405180910390f35b34801561058657600080fd5b506105c5600480360381019080803573ffffffffffffffffffffffffffffffffffffffff169060200190929190803590602001909291905050506112a4565b604051808215151515815260200191505060405180910390f35b3480156105eb57600080fd5b50610640600480360381019080803573ffffffffffffffffffffffffffffffffffffffff169060200190929190803573ffffffffffffffffffffffffffffffffffffffff1690602001909291905050506114a0565b6040518082815260200191505060405180910390f35b34801561066257600080fd5b50610697600480360381019080803573ffffffffffffffffffffffffffffffffffffffff169060200190929190505050611527565b005b600360149054906101000a900460ff1681565b6040805190810160405280600d81526020017f5a696c6c696f7320546f6b656e0000000000000000000000000000000000000081525081565b600081600260003373ffffffffffffffffffffffffffffffffffffffff1673ffffffffffffffffffffffffffffffffffffffff16815260200190815260200160002060008573ffffffffffffffffffffffffffffffffffffffff1673ffffffffffffffffffffffffffffffffffffffff168152602001908152602001600020819055508273ffffffffffffffffffffffffffffffffffffffff163373ffffffffffffffffffffffffffffffffffffffff167f8c5be1e5ebec7d5bd14f71427d1e84f3dd0314c0f7b2291e5b200ac8c7c3b925846040518082815260200191505060405180910390a36001905092915050565b60045481565b600080600073ffffffffffffffffffffffffffffffffffffffff168473ffffffffffffffffffffffffffffffffffffffff161415151561081c57600080fd5b600260008673ffffffffffffffffffffffffffffffffffffffff1673ffffffffffffffffffffffffffffffffffffffff16815260200190815260200160002060003373ffffffffffffffffffffffffffffffffffffffff1673ffffffffffffffffffffffffffffffffffffffff1681526020019081526020016000205490506108ed83600160008873ffffffffffffffffffffffffffffffffffffffff1673ffffffffffffffffffffffffffffffffffffffff1681526020019081526020016000205461167f90919063ffffffff16565b600160008773ffffffffffffffffffffffffffffffffffffffff1673ffffffffffffffffffffffffffffffffffffffff1681526020019081526020016000208190555061098283600160008773ffffffffffffffffffffffffffffffffffffffff1673ffffffffffffffffffffffffffffffffffffffff1681526020019081526020016000205461169890919063ffffffff16565b600160008673ffffffffffffffffffffffffffffffffffffffff1673ffffffffffffffffffffffffffffffffffffffff168152602001908152602001600020819055506109d8838261167f90919063ffffffff16565b600260008773ffffffffffffffffffffffffffffffffffffffff1673ffffffffffffffffffffffffffffffffffffffff16815260200190815260200160002060003373ffffffffffffffffffffffffffffffffffffffff1673ffffffffffffffffffffffffffffffffffffffff168152602001908152602001600020819055508373ffffffffffffffffffffffffffffffffffffffff168573ffffffffffffffffffffffffffffffffffffffff167fddf252ad1be2c89b69c2b068fc378daa952ba7f163c4a11628f55a4df523b3ef856040518082815260200191505060405180910390a360019150509392505050565b601281565b6000600360009054906101000a900473ffffffffffffffffffffffffffffffffffffffff1673ffffffffffffffffffffffffffffffffffffffff163373ffffffffffffffffffffffffffffffffffffffff16141515610b2c57600080fd5b600360149054906101000a900460ff16151515610b4857600080fd5b610b9a82600160008673ffffffffffffffffffffffffffffffffffffffff1673ffffffffffffffffffffffffffffffffffffffff1681526020019081526020016000205461169890919063ffffffff16565b600160008573ffffffffffffffffffffffffffffffffffffffff1673ffffffffffffffffffffffffffffffffffffffff168152602001908152602001600020819055508273ffffffffffffffffffffffffffffffffffffffff167f0f6798a560793a54c3bcfe86a93cde1e73087d944c0ea20544137d4121396885836040518082815260200191505060405180910390a28273ffffffffffffffffffffffffffffffffffffffff163373ffffffffffffffffffffffffffffffffffffffff167fddf252ad1be2c89b69c2b068fc378daa952ba7f163c4a11628f55a4df523b3ef846040518082815260200191505060405180910390a36001905092915050565b600080600260003373ffffffffffffffffffffffffffffffffffffffff1673ffffffffffffffffffffffffffffffffffffffff16815260200190815260200160002060008573ffffffffffffffffffffffffffffffffffffffff1673ffffffffffffffffffffffffffffffffffffffff16815260200190815260200160002054905080831115610dab576000600260003373ffffffffffffffffffffffffffffffffffffffff1673ffffffffffffffffffffffffffffffffffffffff16815260200190815260200160002060008673ffffffffffffffffffffffffffffffffffffffff1673ffffffffffffffffffffffffffffffffffffffff16815260200190815260200160002081905550610e3f565b610dbe838261167f90919063ffffffff16565b600260003373ffffffffffffffffffffffffffffffffffffffff1673ffffffffffffffffffffffffffffffffffffffff16815260200190815260200160002060008673ffffffffffffffffffffffffffffffffffffffff1673ffffffffffffffffffffffffffffffffffffffff168152602001908152602001600020819055505b8373ffffffffffffffffffffffffffffffffffffffff163373ffffffffffffffffffffffffffffffffffffffff167f8c5be1e5ebec7d5bd14f71427d1e84f3dd0314c0f7b2291e5b200ac8c7c3b925600260003373ffffffffffffffffffffffffffffffffffffffff1673ffffffffffffffffffffffffffffffffffffffff16815260200190815260200160002060008873ffffffffffffffffffffffffffffffffffffffff1673ffffffffffffffffffffffffffffffffffffffff168152602001908152602001600020546040518082815260200191505060405180910390a3600191505092915050565b6000600360009054906101000a900473ffffffffffffffffffffffffffffffffffffffff1673ffffffffffffffffffffffffffffffffffffffff163373ffffffffffffffffffffffffffffffffffffffff16141515610f8957600080fd5b610f956000548361167f565b600081905550919050565b6000600160008373ffffffffffffffffffffffffffffffffffffffff1673ffffffffffffffffffffffffffffffffffffffff168152602001908152602001600020549050919050565b6000600360009054906101000a900473ffffffffffffffffffffffffffffffffffffffff1673ffffffffffffffffffffffffffffffffffffffff163373ffffffffffffffffffffffffffffffffffffffff1614151561104757600080fd5b6001600360146101000a81548160ff0219169083151502179055507fae5184fba832cb2b1f702aca6117b8d265eaf03ad33eb133f19dde0f5920fa0860405160405180910390a16001905090565b6040805190810160405280600481526020017f5a4c53540000000000000000000000000000000000000000000000000000000081525081565b60008073ffffffffffffffffffffffffffffffffffffffff168373ffffffffffffffffffffffffffffffffffffffff161415151561110b57600080fd5b61115d82600160003373ffffffffffffffffffffffffffffffffffffffff1673ffffffffffffffffffffffffffffffffffffffff1681526020019081526020016000205461167f90919063ffffffff16565b600160003373ffffffffffffffffffffffffffffffffffffffff1673ffffffffffffffffffffffffffffffffffffffff168152602001908152602001600020819055506111f282600160008673ffffffffffffffffffffffffffffffffffffffff1673ffffffffffffffffffffffffffffffffffffffff1681526020019081526020016000205461169890919063ffffffff16565b600160008573ffffffffffffffffffffffffffffffffffffffff1673ffffffffffffffffffffffffffffffffffffffff168152602001908152602001600020819055508273ffffffffffffffffffffffffffffffffffffffff163373ffffffffffffffffffffffffffffffffffffffff167fddf252ad1be2c89b69c2b068fc378daa952ba7f163c4a11628f55a4df523b3ef846040518082815260200191505060405180910390a36001905092915050565b600061133582600260003373ffffffffffffffffffffffffffffffffffffffff1673ffffffffffffffffffffffffffffffffffffffff16815260200190815260200160002060008673ffffffffffffffffffffffffffffffffffffffff1673ffffffffffffffffffffffffffffffffffffffff1681526020019081526020016000205461169890919063ffffffff16565b600260003373ffffffffffffffffffffffffffffffffffffffff1673ffffffffffffffffffffffffffffffffffffffff16815260200190815260200160002060008573ffffffffffffffffffffffffffffffffffffffff1673ffffffffffffffffffffffffffffffffffffffff168152602001908152602001600020819055508273ffffffffffffffffffffffffffffffffffffffff163373ffffffffffffffffffffffffffffffffffffffff167f8c5be1e5ebec7d5bd14f71427d1e84f3dd0314c0f7b2291e5b200ac8c7c3b925600260003373ffffffffffffffffffffffffffffffffffffffff1673ffffffffffffffffffffffffffffffffffffffff16815260200190815260200160002060008773ffffffffffffffffffffffffffffffffffffffff1673ffffffffffffffffffffffffffffffffffffffff168152602001908152602001600020546040518082815260200191505060405180910390a36001905092915050565b6000600260008473ffffffffffffffffffffffffffffffffffffffff1673ffffffffffffffffffffffffffffffffffffffff16815260200190815260200160002060008373ffffffffffffffffffffffffffffffffffffffff1673ffffffffffffffffffffffffffffffffffffffff16815260200190815260200160002054905092915050565b600360009054906101000a900473ffffffffffffffffffffffffffffffffffffffff1673ffffffffffffffffffffffffffffffffffffffff163373ffffffffffffffffffffffffffffffffffffffff1614151561158357600080fd5b600073ffffffffffffffffffffffffffffffffffffffff168173ffffffffffffffffffffffffffffffffffffffff16141515156115bf57600080fd5b8073ffffffffffffffffffffffffffffffffffffffff16600360009054906101000a900473ffffffffffffffffffffffffffffffffffffffff1673ffffffffffffffffffffffffffffffffffffffff167f8be0079c531659141344cd1fd0a4f28419497f9722a3daafe3b4186f6b6457e060405160405180910390a380600360006101000a81548173ffffffffffffffffffffffffffffffffffffffff021916908373ffffffffffffffffffffffffffffffffffffffff16021790555050565b600082821115151561168d57fe5b818303905092915050565b60008082840190508381101515156116ac57fe5b8091505092915050565b600080828402905060008414806116d757508284828115156116d457fe5b04145b15156116df57fe5b80915050929150505600a165627a7a723058207f8a3403de94992521139be310c69c878b0a8555d10959edf9a6f51e2d35e5590029",
  "source": "pragma solidity 0.4.24;\ncontract ERC20Basic {\n  uint256 public totalSupply;\n  function balanceOf(address who) public constant returns (uint256);\n  function transfer(address to, uint256 value) public returns (bool);\n  event Transfer(address indexed from, address indexed to, uint256 value);\n}\ncontract Ownable {\n  address internal owner;\n  event OwnershipTransferred(address indexed previousOwner, address indexed newOwner);\n  function Ownable() {\n    owner = msg.sender;\n  }\n  modifier onlyOwner() {\n    require(msg.sender == owner);\n    _;\n  }\n  function transferOwnership(address newOwner) onlyOwner public {\n    require(newOwner != address(0));\n    OwnershipTransferred(owner, newOwner);\n    owner = newOwner;\n  }\n}\nlibrary SafeMath {\n  function mul(uint256 a, uint256 b) internal constant returns (uint256) {\n    uint256 c = a * b;\n    assert(a == 0 || c / a == b);\n    return c;\n  }\n  function div(uint256 a, uint256 b) internal constant returns (uint256) {\n    uint256 c = a / b;\n    return c;\n  }\n  function sub(uint256 a, uint256 b) internal constant returns (uint256) {\n    assert(b <= a);\n    return a - b;\n  }\n  function add(uint256 a, uint256 b) internal constant returns (uint256) {\n    uint256 c = a + b;\n    assert(c >= a);\n    return c;\n  }\n}\n\n\n\n\n\n\ncontract BasicToken is ERC20Basic {\n  using SafeMath for uint256;\n  mapping(address => uint256) balances;\n  function transfer(address _to, uint256 _value) public returns (bool) {\n    require(_to != address(0));\n    balances[msg.sender] = balances[msg.sender].sub(_value);\n    balances[_to] = balances[_to].add(_value);\n    Transfer(msg.sender, _to, _value);\n    return true;\n  }\n  function balanceOf(address _owner) public constant returns (uint256 balance) {\n    return balances[_owner];\n  }\n}\n\n\ncontract ERC20 is ERC20Basic {\n  function allowance(address owner, address spender) public constant returns (uint256);\n  function transferFrom(address from, address to, uint256 value) public returns (bool);\n  function approve(address spender, uint256 value) public returns (bool);\n  event Approval(address indexed owner, address indexed spender, uint256 value);\n}\ncontract StandardToken is ERC20, BasicToken {\n  mapping (address => mapping (address => uint256)) allowed;\n  function transferFrom(address _from, address _to, uint256 _value) public returns (bool) {\n    require(_to != address(0));\n    uint256 _allowance = allowed[_from][msg.sender];\n    balances[_from] = balances[_from].sub(_value);\n    balances[_to] = balances[_to].add(_value);\n    allowed[_from][msg.sender] = _allowance.sub(_value);\n    Transfer(_from, _to, _value);\n    return true;\n  }\n  function approve(address _spender, uint256 _value) public returns (bool) {\n    allowed[msg.sender][_spender] = _value;\n    Approval(msg.sender, _spender, _value);\n    return true;\n  }\n  function allowance(address _owner, address _spender) public constant returns (uint256 remaining) {\n    return allowed[_owner][_spender];\n  }\n  function increaseApproval (address _spender, uint _addedValue)\n    returns (bool success) {\n    allowed[msg.sender][_spender] = allowed[msg.sender][_spender].add(_addedValue);\n    Approval(msg.sender, _spender, allowed[msg.sender][_spender]);\n    return true;\n  }\n  function decreaseApproval (address _spender, uint _subtractedValue)\n    returns (bool success) {\n    uint oldValue = allowed[msg.sender][_spender];\n    if (_subtractedValue > oldValue) {\n      allowed[msg.sender][_spender] = 0;\n    } else {\n      allowed[msg.sender][_spender] = oldValue.sub(_subtractedValue);\n    }\n    Approval(msg.sender, _spender, allowed[msg.sender][_spender]);\n    return true;\n  }\n}\n\ncontract MintableToken is StandardToken, Ownable {\n  event Mint(address indexed to, uint256 amount);\n  event MintFinished();\n  bool public mintingFinished = false;\n  modifier canMint() {\n    require(!mintingFinished);\n    _;\n  }\n  function mint(address _to, uint256 _amount) onlyOwner canMint public returns (bool) {\n    balances[_to] = balances[_to].add(_amount);\n    Mint(_to, _amount);\n    Transfer(msg.sender, _to, _amount);\n    return true;\n  }\n  function finishMinting() onlyOwner public returns (bool) {\n    mintingFinished = true;\n    MintFinished();\n    return true;\n  }\n  function burnTokens(uint256 _unsoldTokens) onlyOwner public returns (bool) {\n    totalSupply = SafeMath.sub(totalSupply, _unsoldTokens);\n  }\n}\n\n\n\n\ncontract Pausable is Ownable {\n  event Pause();\n  event Unpause();\n  bool public paused = false;\n  modifier whenNotPaused() {\n    require(!paused);\n    _;\n  }\n  modifier whenPaused() {\n    require(paused);\n    _;\n  }\n  function pause() onlyOwner whenNotPaused public {\n    paused = true;\n    Pause();\n  }\n  function unpause() onlyOwner whenPaused public {\n    paused = false;\n    Unpause();\n  }\n}\ncontract Crowdsale is Ownable, Pausable {\n\n  using SafeMath for uint256;\n  MintableToken internal token;\n  address internal wallet;\n  uint256 public rate;\n  uint256 internal weiRaised;\n  uint256 public ICOstartTime;\n  uint256 public ICOEndTime;\n  uint256 public totalSupply = SafeMath.mul(1000000000 , 1 ether);\n  uint256 public icoSupply = SafeMath.mul(92242535, 1 ether);\n  // SUPPLIES :: START\n  uint256 public publicSupply = SafeMath.mul(400000000, 1 ether);\n  uint256 public teamFounderSupply = SafeMath.mul(250000000, 1 ether);\n  uint256 public companyVestingSupply = SafeMath.mul(250000000, 1 ether);\n  uint256 public advisorSupply = SafeMath.mul(30000000, 1 ether);\n  uint256 public bountySupply = SafeMath.mul(10000000, 1 ether);\n  uint256 public rewardsSupply = SafeMath.mul(60000000, 1 ether);\n  // SUPPLIES :: END\n  uint256 public tier_bonus_suply = SafeMath.mul(35454734,1 ether);\n  uint256 public teamFounderTimeLock;\n  uint256 public companyVestingTimeLock;\n  uint256 public advisorTimeLock;\n  uint internal founderCounter = 0;\n  uint internal advisorCounter = 0;\n  uint internal companyCounter = 0;\n  bool public checkBurnTokens;\n  bool public checkAlocatedBurn;\n  bool public tier_gold_completed;\n  bool public tier_silver_completed;\n  bool public tier_bronze_completed;\n  bool public tier_copper_completed;\n  uint256 public tier_gold_slots = 0;\n  uint256 public tier_silver_slots = 0;\n  uint256 public tier_bronze_slots = 0;\n  uint256 public tier_copper_slots = 0;\n\n  event TokenPurchase(address indexed purchaser, address indexed beneficiary, uint256 value, uint256 amount);\n  function Crowdsale(uint256 _startTime, uint256 _endTime, uint256 _rate, address _wallet) {\n    require(_startTime >= now);\n    require(_endTime >= _startTime);\n    require(_rate > 0);\n    require(_wallet != 0x0);\n    token = createTokenContract();\n    ICOstartTime = _startTime;\n    ICOEndTime = _endTime;\n    rate = _rate;\n    wallet = _wallet;\n\n    teamFounderTimeLock = SafeMath.add(ICOEndTime, 360 days);\n    companyVestingTimeLock = SafeMath.add(ICOEndTime, 360 days);\n    advisorTimeLock = SafeMath.add(ICOEndTime, 180 days);\n\n    checkBurnTokens = false;\n    checkAlocatedBurn = false;\n\n\n    tier_gold_completed = false;\n    tier_silver_completed = false;\n    tier_bronze_completed = false;\n    tier_copper_completed = false;\n  }\n  function createTokenContract() internal returns (MintableToken) {\n    return new MintableToken();\n  }\n  function privateTokens(uint256 weiAmount, uint256 tokens) internal returns (uint256) {\n    if((SafeMath.sub(2,tier_gold_slots) >= SafeMath.div(weiAmount,100000000000000000)) && (weiAmount - (100000000000000000 * (SafeMath.div(weiAmount,100000000000000000))) == 0) && tier_gold_completed == false)\n    {\n      tokens = tierGoldTokens(weiAmount,tokens);\n    }\n    else if((SafeMath.sub(5,tier_silver_slots) >= SafeMath.div(weiAmount,100000000000000000)) && (weiAmount - (100000000000000000 * (SafeMath.div(weiAmount,100000000000000000))) == 0) && tier_silver_completed == false && tier_gold_completed == true)\n    {\n      tokens = tierSilverTokens(weiAmount,tokens);\n    }\n    else if((SafeMath.sub(25,tier_bronze_slots) >= SafeMath.div(weiAmount,100000000000000000)) && (weiAmount - (100000000000000000 * (SafeMath.div(weiAmount,100000000000000000))) == 0) && tier_bronze_completed == false  && tier_silver_completed == true  && tier_gold_completed == true)\n    {\n      tokens = tierBronzeTokens(weiAmount,tokens);\n    }\n    else if((SafeMath.sub(100,tier_copper_slots) >= SafeMath.div(weiAmount,100000000000000000)) && (weiAmount - (100000000000000000 * (SafeMath.div(weiAmount,100000000000000000))) == 0) && tier_copper_completed == false && tier_bronze_completed == true  && tier_silver_completed == true  && tier_gold_completed == true)\n    {\n      tokens = tierCopperTokens(weiAmount,tokens);\n    }\n    else{\n      tokens = icoTokens(weiAmount, tokens);\n    }\n     return tokens;\n  }\n  function tierGoldTokens(uint256 weiAmount, uint256 tokens) internal returns (uint256)\n  {\n    require(tier_gold_completed == false);\n    require(tier_gold_slots < 2);\n    if((SafeMath.sub(2,tier_gold_slots) >= SafeMath.div(weiAmount,100000000000000000)) && (weiAmount - (100000000000000000 * (SafeMath.div(weiAmount,100000000000000000))) == 0))\n    {\n      tokens = SafeMath.add(tokens, weiAmount.mul(rate));\n      tier_gold_slots = SafeMath.add(tier_gold_slots,SafeMath.div(weiAmount,100000000000000000));\n    }\n    if(tier_gold_slots == 2)\n    {\n      tier_gold_completed = true;\n      return tokens;\n    }\n    else\n    {\n      return tokens;\n    }\n  }\n  function tierSilverTokens(uint256 weiAmount, uint256 tokens) internal returns (uint256)\n  {\n    require(tier_silver_completed == false);\n    require(tier_silver_slots < 5);\n    if((SafeMath.sub(5,tier_silver_slots) >= SafeMath.div(weiAmount,100000000000000000)) && (weiAmount - (100000000000000000 * (SafeMath.div(weiAmount,100000000000000000))) == 0))\n    {\n      tokens = SafeMath.add(tokens, weiAmount.mul(rate));\n      tier_silver_slots = SafeMath.add(tier_silver_slots,SafeMath.div(weiAmount,100000000000000000));\n    }\n    if(tier_silver_slots == 5)\n    {\n      tier_silver_completed = true;\n      return tokens;\n    }\n    else\n    {\n      return tokens;\n    }\n  }\n  function tierBronzeTokens(uint256 weiAmount, uint256 tokens) internal returns (uint256)\n  {\n    require(tier_bronze_completed == false);\n    require(tier_bronze_slots < 25);\n    if((SafeMath.sub(25,tier_bronze_slots) >= SafeMath.div(weiAmount,100000000000000000)) && (weiAmount - (100000000000000000 * (SafeMath.div(weiAmount,100000000000000000))) == 0))\n    {\n      tokens = SafeMath.add(tokens, weiAmount.mul(rate));\n      tier_bronze_slots = SafeMath.add(tier_bronze_slots,SafeMath.div(weiAmount,100000000000000000));\n    }\n    if(tier_bronze_slots == 25)\n    {\n      tier_bronze_completed = true;\n      return tokens;\n    }\n    else\n    {\n      return tokens;\n    }\n  }\n  function tierCopperTokens(uint256 weiAmount, uint256 tokens) internal returns (uint256)\n  {\n    require(tier_copper_completed == false);\n    require(tier_copper_slots < 100);\n    if((SafeMath.sub(100,tier_copper_slots) >= SafeMath.div(weiAmount,100000000000000000)) && (weiAmount - (100000000000000000 * (SafeMath.div(weiAmount,100000000000000000))) == 0))\n    {\n      tokens = SafeMath.add(tokens, weiAmount.mul(rate));\n      tier_copper_slots = SafeMath.add(tier_copper_slots,SafeMath.div(weiAmount,100000000000000000));\n    }\n    if(tier_copper_slots == 100)\n    {\n      tier_copper_completed = true;\n      return tokens;\n    }\n    else\n    {\n      return tokens;\n    }\n  }\n  function icoTokens(uint256 weiAmount, uint256 tokens) internal returns (uint256)\n  {\n    require((weiAmount >= 100000000000000000) && (weiAmount <=1000000000000000000000));\n    require(icoSupply > 0);\n    tokens = SafeMath.add(tokens, weiAmount.mul(rate));\n    require(icoSupply >= tokens);\n    icoSupply = icoSupply.sub(tokens);\n    publicSupply = publicSupply.sub(tokens);\n    return tokens;\n  }\n  function () payable\n  {\n    buyTokens(msg.sender);\n  }\n  function buyTokens(address beneficiary) whenNotPaused public payable {\n    require(beneficiary != 0x0);\n    require(validPurchase());\n    uint256 weiAmount = msg.value;\n    uint256 tokens = 0;\n    if((weiAmount >= 100000000000000000) && (tier_gold_slots < 2 || tier_silver_slots < 5 || tier_bronze_slots < 25 || tier_copper_slots < 100))\n    {\n      tokens = privateTokens(weiAmount, tokens);\n    }\n    else\n    {\n      tokens = icoTokens(weiAmount, tokens);\n    }\n    weiRaised = weiRaised.add(weiAmount);\n    token.mint(beneficiary, tokens);\n    TokenPurchase(msg.sender, beneficiary, weiAmount, tokens);\n    forwardFunds();\n  }\n  function forwardFunds() internal {\n    wallet.transfer(msg.value);\n  }\n  function validPurchase() internal constant returns (bool) {\n    bool withinPeriod = now >= ICOstartTime && now <= ICOEndTime;\n    bool nonZeroPurchase = msg.value != 0;\n    return withinPeriod && nonZeroPurchase;\n  }\n  function hasEnded() public constant returns (bool) {\n      return now > ICOEndTime;\n  }\n  function getTokenAddress() onlyOwner public returns (address) {\n    return token;\n  }\n}\n\n\ncontract Allocations is Crowdsale {\nfunction bountyDrop(address[] recipients, uint256[] values) onlyOwner public {\nfor (uint256 i = 0; i < recipients.length; i++) {\n  values[i] = SafeMath.mul(values[i], 1 ether);\n  require(bountySupply >= values[i]);\n  bountySupply = SafeMath.sub(bountySupply,values[i]);\n  token.mint(recipients[i], values[i]);\n  }\n}\nfunction grantAdvisorToken(address beneficiary ) onlyOwner  public {\n  require((advisorCounter < 6) && (advisorTimeLock < now));\n  advisorTimeLock = SafeMath.add(advisorTimeLock, 30 days);\n  token.mint(beneficiary,SafeMath.div(advisorSupply, 6));\n  advisorCounter = SafeMath.add(advisorCounter, 1);\n}\nfunction grantTeamFounderToken(address teamfounderAddress) onlyOwner  public {\n  require((founderCounter < 36) && (teamFounderTimeLock < now));\n  teamFounderTimeLock = SafeMath.add(teamFounderTimeLock, 30 days);\n  token.mint(teamfounderAddress,SafeMath.div(teamFounderSupply, 36));\n  founderCounter = SafeMath.add(founderCounter, 1);\n}\n\nfunction grantCompanyToken(address companyAddress) onlyOwner  public {\n  require((companyCounter < 36) && (companyVestingTimeLock < now));\n  companyVestingTimeLock = SafeMath.add(companyVestingTimeLock, 30 days);\n  token.mint(companyAddress,SafeMath.div(companyVestingSupply, 36));\n  companyCounter = SafeMath.add(companyCounter, 1);\n}\nfunction transferRewardsFunds(address[] recipients, uint256[] values) onlyOwner  public {\nfor (uint256 i = 0; i < recipients.length; i++) {\n  values[i] = SafeMath.mul(values[i], 1 ether);\n  require(rewardsSupply >= values[i]);\n  rewardsSupply = SafeMath.sub(rewardsSupply,values[i]);\n  token.mint(recipients[i], values[i]);\n}\n}\nfunction transferFunds(address[] recipients, uint256[] values) onlyOwner  public {\nrequire(!checkBurnTokens);\nfor (uint256 i = 0; i < recipients.length; i++) {\n  values[i] = SafeMath.mul(values[i], 1 ether);\n  require(publicSupply >= values[i]);\n  publicSupply = SafeMath.sub(publicSupply,values[i]);\n  token.mint(recipients[i], values[i]);\n}\n}\nfunction bonusTransfers(address[] recipients, uint256[] values) onlyOwner  public {\nrequire(!checkBurnTokens);\nfor (uint256 i = 0; i < recipients.length; i++) {\n  values[i] = SafeMath.mul(values[i], 1 ether);\n  require(tier_bonus_suply >= values[i]);\n  tier_bonus_suply = SafeMath.sub(tier_bonus_suply,values[i]);\n  token.mint(recipients[i], values[i]);\n}\n}\nfunction burnToken() onlyOwner  public returns (bool) {\n  require(hasEnded());\n  require(!checkBurnTokens);\n  token.burnTokens(icoSupply);\n  totalSupply = SafeMath.sub(totalSupply, icoSupply);\n  publicSupply = 0;\n  icoSupply = 0;\n  checkBurnTokens = true;\n  return true;\n}\n\nfunction allocatedTokenBurn () onlyOwner public returns (bool)\n{\n  require(!checkAlocatedBurn);\n  require(hasEnded());\n  token.burnTokens(advisorSupply);\n  token.burnTokens(bountySupply);\n  totalSupply = SafeMath.sub(totalSupply, advisorSupply);\n  totalSupply = SafeMath.sub(totalSupply, bountySupply);\n  advisorSupply = 0;\n  bountySupply = 0;\n\n  checkAlocatedBurn = true;\n  return true;\n}\n}\n\n\n\ncontract CappedCrowdsale is Crowdsale {\n  using SafeMath for uint256;\n  uint256 internal cap;\n  function CappedCrowdsale(uint256 _cap) {\n    require(_cap > 0);\n    cap = _cap;\n  }\n  function validPurchase() internal constant returns (bool) {\n    bool withinCap = weiRaised.add(msg.value) <= cap;\n    return super.validPurchase() && withinCap;\n  }\n  function hasEnded() public constant returns (bool) {\n    bool capReached = weiRaised >= cap;\n    return super.hasEnded() || capReached;\n  }\n}\n\n\n\n\n\n\ncontract FinalizableCrowdsale is Crowdsale {\n  using SafeMath for uint256;\n  bool isFinalized = false;\n  event Finalized();\n  function finalizeCrowdsale() onlyOwner public {\n    require(!isFinalized);\n    require(hasEnded());\n    finalization();\n    Finalized();\n    isFinalized = true;\n    }\n  function finalization() internal {\n  }\n}\n\n\n\ncontract RefundVault is Ownable {\n  using SafeMath for uint256;\n  enum State { Active, Refunding, Closed }\n  mapping (address => uint256) public deposited;\n  address public wallet;\n  State public state;\n  event Closed();\n  event RefundsEnabled();\n  event Refunded(address indexed beneficiary, uint256 weiAmount);\n  function RefundVault(address _wallet) public {\n    require(_wallet != 0x0);\n    wallet = _wallet;\n    state = State.Active;\n  }\n  function deposit(address investor) onlyOwner public payable {\n    require(state == State.Active);\n    deposited[investor] = deposited[investor].add(msg.value);\n  }\n  function close() onlyOwner public {\n    require(state == State.Active);\n    state = State.Closed;\n    Closed();\n    wallet.transfer(this.balance);\n  }\n  function enableRefunds() onlyOwner public {\n    require(state == State.Active);\n    state = State.Refunding;\n    RefundsEnabled();\n  }\n  function refund(address investor) public {\n    require(state == State.Refunding);\n    uint256 depositedValue = deposited[investor];\n    deposited[investor] = 0;\n    investor.transfer(depositedValue);\n    Refunded(investor, depositedValue);\n  }\n}\n\ncontract RefundableCrowdsale is FinalizableCrowdsale {\n  using SafeMath for uint256;\n  uint256 internal goal;\n  RefundVault private vault;\n  function RefundableCrowdsale(uint256 _goal) public {\n    require(_goal > 0);\n    vault = new RefundVault(wallet);\n    goal = _goal;\n  }\n  function forwardFunds() internal {\n    vault.deposit.value(msg.value)(msg.sender);\n  }\n  function claimRefund() public {\n    require(isFinalized);\n    require(!goalReached());\n    vault.refund(msg.sender);\n  }\n  function finalization() internal {\n    if (goalReached()) {\n      vault.close();\n    } else {\n      vault.enableRefunds();\n    }\n    super.finalization();\n  }\n  function goalReached() public view returns (bool) {\n    return weiRaised >= goal;\n  }\n  function getVaultAddress() onlyOwner public returns (address) {\n    return vault;\n  }\n}\n\n\ncontract ZillosToken is MintableToken {\n  string public constant name = \"Zillios Token\";\n  string public constant symbol = \"ZLST\";\n  uint8 public constant decimals = 18;\n  uint256 public totalSupply = SafeMath.mul(1000000000 , 1 ether);\n}\ncontract ZillosCrowdsale is Crowdsale, CappedCrowdsale, RefundableCrowdsale, Allocations {\n    function ZillosCrowdsale(uint256 _startTime, uint256 _endTime, uint256 _rate, uint256 _cap, uint256 _goal, address _wallet) public\n    CappedCrowdsale(_cap)\n    FinalizableCrowdsale()\n    RefundableCrowdsale(_goal)\n    Crowdsale(_startTime, _endTime, _rate, _wallet)\n    {\n    }\n    function createTokenContract() internal returns (MintableToken) {\n        return new ZillosToken();\n    }\n}\n",
  "sourcePath": "/Users/sergiopereira/Code/Zillios/contracts/tokensale/ZilliosToken.sol",
  "compiler": {
    "name": "solc",
    "version": "0.4.24+commit.e67f0147.Emscripten.clang"
  },
  "schemaVersion": "2.0.1",
  "updatedAt": "2018-06-29T07:11:21.817Z"
}